:100000000C94AF030C94D7030C94D7030C94FD0904
:100010000C94FD090C94FD090C94D7030C94202D2D
:100020000C94D7030C94D7030C94D7030C94D703E8
:100030000C94D7030C94D7030C94D7030C94D703D8
:100040000C9492340C94D7030C9402350C94DC3449
:100050000C94D7030C94D7030C94D7030C94D703B8
:100060000C94D7030C94D703801585159015901523
:1000700090159015951597159A154572726F722007
:10008000706172616D657465723A205B302D395D07
:100090002B206F722022615B302D395D220D0A000A
:1000A00009003A0053797374656D20766172733A72
:1000B000003444444440044044444444444444449C
:1000C000440877478577787878111111111187885E
:1000D000844222222222222222222222222224445A
:1000E0007242222222222222222222222222278716
:1000F00074868788898C8D93858B848AA626267C36
:100100007C3D3D213D2B2B2D2D3A3D3E3D3E3E3C41
:100110003D3C3C2F2F0061627300617200617700EB
:1001200062617564006263006265657000627200FE
:10013000627300627700636C7200636F6E73747237
:1001400061696E0064656C617900647200647700B7
:1001500065630065720065770066726565006765B6
:10016000746B6579006765746E756D00696E620009
:100170006973737472006D6170006D6178006D69F0
:100180006C6C6973006D696E006F757462007069E4
:100190006E6D6F646500706D00706D656D007072DE
:1001A000696E74660070756C7365696E0072616E5D
:1001B000646F6D0073686966746F75740073696746
:1001C0006E00736E6F6F7A65007661726C73007685
:1001D0006172726D0000A199A2A7949B8F9C9A9D59
:1001E000979F9596989EA89061726700626F6F7452
:1001F00000656C736500666F720066756E63746986
:100200006F6E0068656C70006966006C7300706DDD
:1002100070007072696E740070730072657475722C
:100220006E00726D0072756E0073746F700073777C
:100230006974636800766172007768696C650000B4
:1002400062616E6E6572007072696E742022435333
:1002500053484F434B20666F7220656D6465736B26
:100260002028656D62656465642D6465736B746FC9
:100270007029210D0A435320736372697074206CD6
:10028000616E67756167652F6D756C7469706C65FB
:100290002073686F636B2070726F746F636F6C0D87
:1002A0000A56657273696F6E3A2076312E302E30A1
:1002B0000D0A417574686F723A20286329207468AA
:1002C000616E68736F6E2E726640676D61696C2E29
:1002D000636F6D2028303937333530353738312961
:1002E000222C220D0A46726565206D656D3A20222A
:1002F0002C667265652C2262797465732200000099
:1003000000102675256225CF24501CB8260A1C290A
:100310001C7B1C16238525292BD4295D2A972B515C
:10032000253D251524E91B171B3A269D0F7824B17E
:1003300025081CD0252626AC2A660F42285632F303
:10034000244A26142AEF25472BB60DB00D7265748A
:1003500075726E3900206C6179206D6175206C6159
:100360006E203220206F6B696520006C6179206DF2
:100370006175206C616E2032206661696C202000FE
:1003800076616F206C6179206D6175206C616E20E3
:1003900032200063686F206E67756F692064756E28
:1003A00067206E68616320746179206C656E20003F
:1003B000686F616E20746174206C617920206D61BA
:1003C00075206C616E203120006C6179206D617543
:1003D000206C616E203120006E67756F6920647536
:1003E0006E6720686179206E68616320746179208E
:1003F00072612073617520646F20646174206C6188
:100400006920005669727475616C206D656D6F723C
:10041000793A00687474703A2F2F65636C6F756455
:100420002E736F646F6E677579656E6C792E636F6E
:100430006D0D0A50696E733A2064302D32322C6192
:10044000302D323220205661726961626C65733AD8
:1004500020612D7A2C20333220696E745F33327420
:100460002C20666C6F61740D0A4F70657261746F39
:1004700072733A202B202D202A202F20282029207B
:100480003C203C3D203E203E3D203D3D20213D2066
:100490003C3C203E3E2021205E2026207C202B2B31
:1004A000202D2D203A3D0D0A436F6D6D616E6473F2
:1004B0003A200000547970652068657820636F6E7B
:1004C00074656E743A2000657870656374656420A5
:1004D00000756E657870656374656420006D69737E
:1004E00073696E672000737472696E670020756EA1
:1004F000646572666C6F7700206F766572666C6FEC
:1005000077005E43005E42005E5500657870006FC4
:1005100070003A7862792B2D2A2F00656F6600767D
:100520006172006E756D6265720029007361766597
:100530006400656570726F6D003A3D22003E2000D8
:100540006368617200737461636B007374617274C9
:1005500075700069640070726F6D7074000D0A46EA
:10056000756E6374696F6E733A006F6F70730061BC
:1005700072670066756E6374696F6E00637373688B
:100580006F636B00636865636B73756D00000000DB
:100590000000240027002A0020202800202000201E
:1005A00020200020202000202020002020002020CB
:1005B0003078002920200020202800202000546FBF
:1005C00074616C2062797465733A2000290020748C
:1005D0006F2000202866726F6D20616464726573FD
:1005E000732000454570726F6D20287573696E67C2
:1005F00020617320737461636B2073747970652953
:100600002073697A653A200046726565206D656DD4
:100610006F72792073697A653A2000537461636B55
:1006200020757365642073697A653A2000486561B6
:100630007020757365642073697A653A200042738F
:10064000732073697A653A200052656164206F6E89
:100650006C7920646174612073697A652028726105
:100660006D293A20004461746120696E6974656483
:100670002073697A653A2000436F646520666C6177
:1006800073682073697A653A200048656170206557
:100690006D70747921006D747970653A20302F7215
:1006A000616D2C312F656570726F6D2C332F666C08
:1006B00061736800706D656D28736164642C6C658E
:1006C0006E2C6D74797065290000000000230026EF
:1006D00000290001020408102040800102040810D3
:1006E0002001020408102000000000250028002B33
:1006F00000040404040404040402020202020203CB
:1007000003030303030200000008000201000003CA
:100710000407000000000000000052756E20616CAC
:100720006C206261636B67726F756E642100537534
:100730007370656E6420616C6C206261636B6772BC
:100740006F756E6421004F76657220666C6F772C32
:100750002074696D65206F7574008F3579351124AB
:100760001FBECFEFD8E0DEBFCDBF13E0A0E0B1E009
:10077000ECE0F3E802C005900D92AE34B107D9F772
:1007800028E0AEE4B3E001C01D92A934B207E1F75E
:1007900013E0CEEAD3E004C02197FE010E943C3D65
:1007A000CD3AD107C9F70E94DE350C9479410C94FB
:1007B000000080E090E0892B29F00E941D34811117
:1007C0000C94000008952091910330919203281712
:1007D000390771F49091900380918F03981741F03D
:1007E000E0919003F0E0E15BFC4F808190E00895A0
:1007F0008FEF9FEF089508951F93CF93DF93DC0150
:100800005C962D913C915D972115310539F481E07D
:1008100090E013969C938E9312973DC05196ED9164
:10082000FC91529750969C915097892F80951FB7B5
:100830005E964C915E9741FB772770F941FD60957C
:10084000F8944081772311F0492B01C0482340835D
:10085000E9012197F1F748E0508160FF02C0592B70
:1008600001C058235083E9012197F1F76695415063
:1008700099F7772321F090818923808303C08081B9
:10088000982B90831FBF5C968D919C915D970197EB
:10089000F1F721E030E0C901DF91CF911F91089578
:1008A00020919103309192032817390771F48091B8
:1008B0008F032091900390E0805C9F4F821B9109F1
:1008C00060E470E00E94283D089580E090E0089583
:1008D000209191033091920328173907B9F4909130
:1008E000900380918F03981789F0E0919003F0E0D6
:1008F000E15BFC4F80812091900330E02F5F3F4F00
:100900002F7333272093900390E008958FEF9FEF8C
:100910000895089580E090E00895BF92CF92DF920D
:10092000EF92FF920F931F93CF93DF9380E090E0BD
:100930000E94410F6115710581059105E1F062305A
:10094000710581059105E4F4E0919303F09194031E
:10095000808580FD1AC00E94F81481E090E00E941A
:10096000410FC62F8FEF8C0F8530A0F064E070E050
:1009700080E090E0B5C061E070E080E090E0B0C061
:1009800062E070E080E090E0ABC063E070E080E0A7
:1009900090E0A6C08FEE80935E0591E090935F0596
:1009A0008FEF80936005809361058093620580934B
:1009B00063059093640547E050E06EE575E087E7D6
:1009C00096E00E94B53360E087E796E00E94FC0362
:1009D00065E087E796E00E94FC036EE087E796E01B
:1009E0000E94FC0365E087E796E00E94FC036C2F01
:1009F00087E796E00E94FC0360E087E796E00E94AC
:100A0000FC036C2F70E0675E7F4F87E796E00E94E3
:100A1000FC0310925E0510925F050E943B2B6B0158
:100A20007C010EE515E0E801BC2EB01A8BE08B15B9
:100A3000C8F00E943B2BDC01CB018C199D09AE094B
:100A4000BF0986399105A105B105A0F487E796E0B5
:100A50000E945004892B51F387E796E00E946804B6
:100A60008993E2CF80915E058F3E21F480915F05EE
:100A7000813041F087E791E00E94FB3160E070E057
:100A8000CB012EC0809160058F3FA1F78091610559
:100A90008F3F81F7809162058F3F61F780916305F9
:100AA0008F3F41F780916405873021F7809165057C
:100AB0008111E0CF809166058330E1F68091670572
:100AC0008111D8CF8091680590E0982F88272091D8
:100AD0006905820F911D0A9769F689E691E0CCCFEE
:100AE000DF91CF911F910F91FF90EF90DF90CF900A
:100AF000BF900895BF92CF92DF92EF92FF920F9333
:100B00001F93CF93DF930E94F8148FEE80935E05BE
:100B100091E090935F058FEF80936005809361056E
:100B200080936205809363059093640547E050E0ED
:100B30006EE575E087E796E00E94B53360E087E7F1
:100B400096E00E94FC0363E087E796E00E94FC03C6
:100B50006FE087E796E00E94FC0360E087E796E09D
:100B60000E94FC0363E187E796E00E94FC03109279
:100B70005E0510925F050E943B2B6B017C01CEE568
:100B8000D5E08E01B02EBC1A8BE18B15D8F00E94F7
:100B90003B2BDC01CB018C199D09AE09BF098639BD
:100BA0009105A105B105B0F487E796E00E945004D5
:100BB000892B51F387E796E00E946804F80181933E
:100BC0008F01E0CF80915E058F3E21F480915F051B
:100BD000813029F08AE991E00E94FB3168C0809160
:100BE00060058F3FB9F7809161058F3F99F780913C
:100BF00062058F3F79F7809163058F3F59F78091A8
:100C00006405873039F7809165058111E3CF8091C4
:100C100066058331F9F6809167058111DBCFE4E643
:100C2000F5E020E030E08191280F311D85E0E837C4
:100C3000F807C9F78091780590E0982F88274091B0
:100C40007905840F911D2817390721F610916F053A
:100C50001992E5E0C039DE07D9F767E871E08EE563
:100C600095E00E94B53E87E595E0109257051F92EA
:100C70001F9327E931E03F932F939F938F930E9417
:100C8000D83E67E575E08EE595E00E94B53E64E3E9
:100C900072E08EE595E00E94B53E8EE595E00E94FB
:100CA000FB310F900F900F900F900F900F9060E01E
:100CB00070E0CB01DF91CF911F910F91FF90EF90EA
:100CC000DF90CF90BF90089580E090E00E94410FA8
:100CD00016161706180619062CF484EE91E00E94E9
:100CE000FB3118C080919005811114C080910008DB
:100CF000811110C081E08093FF070E94F8140E94C8
:100D00003F1861E070E020E090E0823009F060E0A0
:100D1000822F089560E070E080E090E008950F93E6
:100D20001F9380915D05811142C08091000881115F
:100D30003EC080E090E00E94410F61157105810581
:100D4000910519F48BEA91E007C0623071058105C5
:100D500091052CF084EE91E00E94FB3128C0E091D7
:100D60009303F0919403808580FF05C087EC91E0A8
:100D70000E94FB311AC00E94F81481E08093FE07A4
:100D800081E090E00E94410F6093FD0781E090E0D8
:100D90000E94410F8B019C01015011092109310969
:100DA0000F3711052105310538F062E001C060E020
:100DB00070E080E090E00BC0862F0E940F1861E089
:100DC00070E020E090E0823009F060E0822F1F9117
:100DD0000F910895EF92FF921F93CF93DF9380E0DE
:100DE00090E00E94410F16161706180619061CF40B
:100DF00083EE91E075C08BEB93E00E945B3B882310
:100E000009F46CC0CEE5D5E082E3FE0111928A952B
:100E1000E9F76BEF71E0CE010E94B53EFE01019053
:100E20000020E9F73197EE55F5408FE7E82E83E093
:100E3000F82E11E81E0F8BEB93E00E945B3B90E0D5
:100E40008B599C4FC12FCE0DD0E08E159F0554F0CD
:100E5000C7010E945B3BC25ADA4F8883FFEFEF1A4B
:100E6000FF0AE9CFC25ADA4F18828EE595E00E9458
:100E7000EF31EEE5F5E0119285E0E039F807D9F7BA
:100E80008BEB93E00E945B3BC82FD0E0CA59DC4F4C
:100E900010E08BEB93E00E945B3B90E082589C4F0C
:100EA0008C179D0764F0E12EF12CCE010E945B3B74
:100EB000F701E25AFA4F80831F5F2196EACF64E37D
:100EC00072E08EE595E00E94B53E8EE595E00E94C9
:100ED000FB3161E070E080E090E007C088E092E0E4
:100EE0000E94FB3160E070E0CB01DF91CF911F9158
:100EF000FF90EF900895FC01848DDF01A80FB11DD4
:100F0000A35ABF4F2C91848D90E001968F7399273F
:100F1000848FA689B7892C93A089B1898C9180642C
:100F20008C93938D848D981306C00288F389E02DED
:100F300080818F7D80830895DC0181E09FEE119692
:100F40009C938E9316966C93169718965C934E937B
:100F500017978FEF12968C93129713968C93139783
:100F600014968C93149715968C9315971996403474
:100F7000510520F4B901CD010C94A53E80E4F9019E
:100F800001900D928A95E1F708952F923F924F922A
:100F90005F926F927F928F929F92AF92BF92CF9209
:100FA000DF92EF92FF920F931F93CF93DF93CDB712
:100FB000DEB7CA54D1090FB6F894DEBF0FBECDBF5D
:100FC00080E090E00E94410F1616170618061906D9
:100FD0004CF484EE91E00E94FB3161E070E080E02F
:100FE00090E0DBC00E94F8148DE12B968FAF2B9719
:100FF0009E01265B3F4F41E050E061E0CE0101964B
:101000000E949C07CE0101960E94BA15CE0101965E
:101010000E94451581110DC08F81873051F48B8559
:1010200090E0982F88272C85822B909354068093EC
:10103000530680905306909054068114910431F029
:101040003EE5A32E35E0B32EF5010BC0EEE5F5E04D
:1010500085E0E039F80711F01192FACF66E172E00D
:1010600091C085E0E039F80711F01192FACF1092A3
:10107000570560E272E08EE595E00E94B53E86E09D
:10108000E82EF12C612C712CC12CD12C00E010E049
:1010900097E5292E95E0392E27E9422E21E0522EA0
:1010A0000138110508F058C0902F812F8701055095
:1010B00011090E151F0508F046C00138110508F08A
:1010C00044C010925705C8019D5F0E945B3B813070
:1010D000A9F5EFEF6E1A7E0AFFEFCF1ADF0A1F9312
:1010E0000F935F924F923F922F920E94D83E67E5F6
:1010F00075E08EE595E00E94B53E0F900F900F9041
:101100000F900F900F90C814D904F8F461E972E0C1
:101110008EE595E00E94B53E8FE06816710471F48B
:101120008EE595E00E94EF31EEE5F5E085E0E039EF
:10113000F80711F01192FACF612C712C902F812FAA
:101140000F5F1F4FB6CF092F182FE5E0EE0EF11CF1
:10115000C814D90408F4A4CFF1E06F1A71088EE026
:101160006816710420F48EE595E00E94EF31F0E9F5
:10117000AF16F5E0BF0621F0F50111925F01F7CF40
:1011800064E372E08EE595E00E94B53E8EE595E061
:101190000E94FB3160E070E0CB01C65BDF4F0FB611
:1011A000F894DEBF0FBECDBFDF91CF911F910F919D
:1011B000FF90EF90DF90CF90BF90AF909F908F9077
:1011C0007F906F905F904F903F902F900895CF92B7
:1011D000DF92EF92FF92CF93DF93CDB7DEB7CE547D
:1011E000D1090FB6F894DEBF0FBECDBF80915D056B
:1011F000811178C080910008811174C080919005A0
:10120000811170C080E090E00E94410F611571056E
:101210008105910519F48BEA91E007C062307105F0
:10122000810591052CF084EE91E00E94FB315EC0B7
:10123000E0919303F0919403808580FF09C087ECCF
:1012400091E00E94FB3162E070E080E090E061C0DC
:101250000E94F81481E090E00E94410F6B017C0134
:1012600080E8C816D104E104F10408F03FC0FE0193
:10127000E65BFF4F85E0DF011D928A95E9F78CE080
:10128000808381E08483C2829F0145E050E061E079
:10129000CE0101960E949C07CE0101960E94BA15CC
:1012A000CE0101960E944515811125C08F8187309E
:1012B00011F58A8581111FC0EEE5F5E01192A5E0D8
:1012C000E039FA07D9F768E272E08EE595E00E940E
:1012D000B53EC6019D5F60E00E94633B8EE595E0F0
:1012E0000E94FB3160E070E0CB0113C061E070E070
:1012F00080E090E00EC0EEE5F5E01192B5E0E03957
:10130000FB07D9F767E372E08EE595E00E94B53EF2
:10131000E5CFC25BDF4F0FB6F894DEBF0FBECDBF87
:10132000DF91CF91FF90EF90DF90CF9008950F93D2
:101330001F93CF93DF93EC01162F042F1B821A8289
:1013400088EE93E0A0E0B0E08C839D83AE83BF8302
:101350008BE591E0998388831F8A1E8A198E188EE7
:101360001B8E1A8E1D8E1C8E6E8D6E7F20FB61F97A
:101370006E8F6695617081E06827842F0E94E42952
:1013800061E0802F0E94702A402F50E0FA01ED5258
:10139000F94FE491E88BFA01EF50F94FE491F0E056
:1013A000EE0FFF1FE951F94F859194919A8B898B2C
:1013B00060E0812F0E94702A8E8D81FD04C061E063
:1013C000812F0E94E4291C87612F70E0FB01ED5200
:1013D000F94FE491ED87FB01EF50F94FE491F0E014
:1013E000EE0FFF1FE753F94F859194919F878E87EA
:1013F000DF91CF911F910F9108951F920F920FB619
:101400000F9211242F933F934F935F936F937F938A
:101410008F939F93AF93BF93EF93FF93E0919103CB
:10142000F0919203309709F451C0968DA685B78547
:10143000858591FF04C09C91892329F447C09C9124
:10144000892309F043C0A389B4899C91858980953B
:1014500089238C93868997890197F1F7608D718D27
:10146000A685B785558538E020E0CB010197F1F7D7
:10147000822F90E095958795282F4C91452309F070
:101480002068315091F7868D81FD209580918F03E2
:1014900090E001968F73992730919003381749F0A7
:1014A000A0918F03B0E0A15BBC4F2C9380938F037E
:1014B00003C0868D8160868F828D938D0197F1F7B1
:1014C000A389B4899C918589892B8C93FF91EF9195
:1014D000BF91AF919F918F917F916F915F914F914C
:1014E0003F912F910F900FBE0F901F901895E09194
:1014F0009103F0919203E817F90769F4A389B4897D
:101500009C918589809589238C93109292031092E7
:10151000910381E0089580E00895CF93DF93EC017B
:101520008A8D9B8D892BF1F080919103909192038C
:101530008C179D07B9F0009711F00E94770A8E8DE5
:101540008E7F8E8F10928F0310929003D093920310
:10155000C0939103EB89FC8990818D89892B8083CD
:1015600081E001C080E0DF91CF910895CF93DF93B8
:10157000EC019A01AB011B8E1A8E198E188E1F8AF0
:101580001E8A60E079E08DE390E00E94713BF901F2
:101590002430310518F0C901039702C081E090E0C2
:1015A0009D8F8C8F6C85663108F069C0C901969556
:1015B00087958431910510F0439702C081E090E057
:1015C0009F8B8E8B369718F0C901059702C081E07A
:1015D00090E0998F888FC901880F991F280F391FB4
:1015E00036952795369527952D30310518F02C50D6
:1015F000310902C021E030E03B8F2A8F90916800D2
:10160000683050F021E06E3008F420E081E001C045
:10161000880F2A95EAF701C084E0892B809368003F
:101620008C85883038F08E3040F0863148F020E0EC
:1016300030E008C02DE630E005C02BE630E002C007
:101640002CE630E03C8B2B8B883030F491E001C0ED
:10165000990F8A95EAF70EC0282F30E08E3018F4E3
:101660002850310902C02E50310991E001C0990F74
:101670002A95EAF79D8B8C8D9D8D0197F1F7CE0110
:10168000DF91CF910C948D0AFF920F931F93CF930C
:10169000DF93CDB7DEB7CF54D1090FB6F894DEBFD4
:1016A0000FBECDBF81E0809300080E94A616811175
:1016B00041C081E00E94701681113EC086E0EFE0DB
:1016C000F1E0DE01A65BBF4F01900D928A95E1F734
:1016D0009E01265B3F4F46E050E061E0CE0101965F
:1016E0000E949C07CE0101960E94BA15CE01019678
:1016F0000E944515811122C08F818730F9F48B85B6
:1017000090E0982F88272C85822B90935006809309
:101710004F068D8590E0982F88272E85822B9093F9
:101720005206809351068A85811108C0F0904F06B9
:1017300013E006C011E004C012E002C0F12C14E076
:10174000612F70E080E090E000E725E04AE00E9431
:1017500042300E94CD31133009F04BC082E08093BB
:101760000008EEE5F5E0119285E0E039F807D9F7D9
:1017700068E472E08EE595E00E94B53E87E595E06D
:1017800010925705109258051092590510925A055B
:1017900010925B0510925C051F92FF9227E931E0E1
:1017A0003F932F939F938F930E94D83E67E575E0F8
:1017B0008EE595E00E94B53E64E572E08EE595E029
:1017C0000E94B53E8EE595E00E94FB3101E010E0FD
:1017D00020E030E0A90168EB7BE080E090E00E942F
:1017E00017150F900F900F900F900F900F9082E0B1
:1017F00001C083E0C15BDF4F0FB6F894DEBF0FBEC0
:10180000CDBFDF91CF911F910F91FF9008950F935E
:101810001F9306E010E028EC30E040E050E068EC78
:1018200070E080E090E00E9417151F910F910895DD
:101830000F931F9302E010E020E931E040E050E018
:1018400060E971E080E090E00E9417151F910F9110
:1018500008950E94180C80E090E00E94410F161637
:101860001706180619062CF484EE91E00E94FB314D
:1018700018C080915D05811114C08091900581117F
:1018800010C081E08093FC070E94F8140E94440B72
:1018900061E070E020E090E0823009F060E0822FAB
:1018A000089560E070E080E090E00895109257079E
:1018B000089584E10E94D326809196038093570770
:1018C0000C94A31C0E94A31C8091960390E0A0E0BE
:1018D000B0E08093BB079093BC07A093BD07B09383
:1018E000BE0781E8809357070E94A31C809196034E
:1018F000873219F087E20E94D7260C94A31CCF925E
:10190000DF92EF92FF920F931F93CF93DF9380911B
:10191000960390E0C097092E000CAA0BBB0B809396
:10192000BB079093BC07A093BD07B093BE073DECE7
:10193000C32E3CECD32EED2C3DE3F32ED0E0CAE0D9
:101940000E94A31C8091960390E00E949D3E382F38
:1019500080939603282F2F7D91F18F3281F128ED0E
:10196000280F263060F18E3551F126EC280F2530F6
:1019700030F12EED280F253010F125E8280F243006
:10198000F0F0CA3061F44091BB075091BC07609100
:10199000BD077091BE07452B462B472BE1F03E3229
:1019A00011F120ED280F2A30B0F1DD2309F483C0B6
:1019B000832F90E08F97D0E0C817D907ACF181E86A
:1019C00080935707DF91CF911F910F91FF90EF9078
:1019D000DF90CF900895383711F4C0E1B1CF32369F
:1019E000F1F6C2E0ADCFD1111FC0CA30E9F4609169
:1019F000BB077091BC078091BD079091BE070E9404
:101A00003B3A6093BB077093BC078093BD079093EC
:101A1000BE07D1E095CF9927AC014F5251092C2F29
:101A200030E0241735071CF48EE00E94DD26FC010F
:101A3000F097DD2349F1BF01FF0F880B990B0E943E
:101A40003B3AA70196010E949A3A9B01AC01609132
:101A5000BB077091BC078091BD079091BE070E94A3
:101A6000043C6093BB077093BC078093BD079093C1
:101A7000BE0720E030E040E251E4C701B6010E9419
:101A8000703C6B017C015CCF2091BB073091BC079F
:101A90004091BD075091BE07AC2FB0E00E94903B33
:101AA0008F01FF0F220B330BDC01CB01800F911F45
:101AB000A21FB31F1DC0C03109F07ACF81568630F6
:101AC00000F58091BB079091BC07A091BD07B09134
:101AD000BE0724E0880F991FAA1FBB1F2A95D1F7C4
:101AE000830F911DA11DB11D87559109A109B10950
:101AF0008093BB079093BC07A093BD07B093BE072C
:101B00001FCF273308F41CCF8FCF853018F08DE01E
:101B10000E94D02694E0899FF0011124E154FC4FEB
:101B200040835183628373830895E0915305F0915C
:101B300054052091550594E0299F900111242D52C0
:101B40003C4FE217F30718F083E00E94D0269F0174
:101B50002F5F3F4F309354052093530580830895A2
:101B60000E94CD316FEF7FEFCB0108950F931F934C
:101B7000CF9384EA90E00E94EB310FEB13E0C1E6D3
:101B80008C2F0E94982B82EA90E00E94DC31F801B1
:101B900061917191819191918F0120E040E00E94CB
:101BA000A13180EA90E00E94DC31CF5FC63641F778
:101BB0000E94CD316FEF7FEFCB01CF911F910F913D
:101BC0000895EF92FF920F931F93CF93DF938C01B1
:101BD0000E94FA28AC0160E070E04093BB0750938C
:101BE000BC076093BD077093BE07019621F083EA9E
:101BF000809357072AC0C0E4D2E0FE018491882375
:101C000039F1BE01C8010E94133A7C01CE010E9445
:101C10001C3A0196C80FD91FEF2881F484EA8093FB
:101C20005707CE01DD0FAA0BBB0B8093BB07909328
:101C3000BC07A093BD07B093BE0707C0CE010E94AA
:101C40001C3A0196C80FD91FD8CF8091570704C0FE
:101C500080E88093570780E0DF91CF911F910F912B
:101C6000FF90EF9008958F929F92AF92BF92CF9284
:101C7000DF92EF92FF921F93CF93DF9380919603B1
:101C800090E00E949D3EC82F8093AE070E94A31C47
:101C90009FEAC92E97E0D92ED1E010919603E12E4C
:101CA000F12CC7010E94883E892B79F0DC3019F4B1
:101CB00087E10E94D026DF5FC7010E949D3EF601AA
:101CC00081936F010E94A31CE8CF1E3279F31F3568
:101CD00069F3ED2FF0E0E255F84F1082D130A1F416
:101CE000EC2E0C2E000CFF08C7010E94953E892B9C
:101CF00069F083E880935707C70181569109092E3F
:101D0000000CAA0BBB0B36C0D430E8F5C13611F07D
:101D1000C436C9F58091AF07282F082E000C330B6D
:101D2000205331092A30310570F59091B007292FE1
:101D3000092E000C330B205331092A30310520F0D5
:101D4000992309F48AC01FC0C13611F421E901C0EA
:101D500022E9209357078053992331F09053FAE0FA
:101D60008F9F900D1124892F213909F4825F90E013
:101D7000A0E0B0E08093BB079093BC07A093BD07A1
:101D8000B093BE0772C088EE91E00E94722C882347
:101D900051F0E091BB07F091BC07EA52FE4FE4918D
:101DA000E093570762C086E191E00E94722C811196
:101DB00041C01092BB071092BC071092BD07109251
:101DC000BE0780909503912CA12CB12C0DC03FEF44
:101DD000C31AD30AE30AF30AC092BB07D092BC0726
:101DE000E092BD07F092BE07C090BB07D090BC0741
:101DF000E090BD07F090BE07C814D904EA04FB04C4
:101E0000ECF4F601EE0FFF1FEE0FFF1FE956FC4F3B
:101E1000608171818EEA97E00E94C03E892BB9F6FD
:101E20006894C7F8C092BB07D092BC07E092BD0788
:101E3000F092BE078EE88093570717C08EEA97E0AE
:101E4000DF91CF911F91FF90EF90DF90CF90BF90E7
:101E5000AF909F908F900C94E10DC13609F078CF30
:101E600091E990935707805381CFDF91CF911F91D4
:101E7000FF90EF90DF90CF90BF90AF909F908F90AA
:101E800008950F931F93E0919303F09194038C01B5
:101E9000092E000C220B330B40815181628173812A
:101EA000401751076207730724F46BE182E00E9438
:101EB0003324880F991F880F991FE81BF90B608145
:101EC0007181828193811F910F91089581E00E9419
:101ED0006324E0919303F0919403808580FF29C0EF
:101EE00081E090E00E94410FFB0120812136C9F47E
:101EF000DB010D900020E9F79D01235031092617E1
:101F0000370779F46181062E000C770BCB01C0975F
:101F10000A9738F462527109072E000C880B990B4E
:101F200008958AE790E00E94DC3160E070E0CB0128
:101F3000089581E090E00C94410F0F931F9381E08E
:101F400090E00E94410F6150710981E090E002C071
:101F5000880F991F6A95E2F7092E000CAA0BBB0B9C
:101F6000E0919303F09194030484F585E02D40857E
:101F70005185628573858C019D01042315232623D9
:101F8000372361E070E080E090E0012B022B032B0F
:101F900019F460E070E0CB011F910F910895E0917A
:101FA0005505EF3520F064E089E00E943324EF5FAF
:101FB000E093550584E0E89FF0011124ED52FC4FB9
:101FC00060817181828193810895809155058F5F31
:101FD000E0919303F09194039081890F80935505CC
:101FE0000E94CF0F70935405609353050E94CF0F4A
:101FF0000E94CF0F709394036093930308954091D0
:10200000550524E0429FF0011124ED52FC4F209130
:10201000530530915405E217F30718F489E00E9444
:10202000D0262FEF240F2093550560837183828380
:1020300093830895CF92DF92EF92FF92CF93C82FB0
:102040000E94CF0F6B017C010E94CF0F9B01AC015E
:10205000CE3509F4BCC028F5CB3209F44CC070F47D
:10206000C63209F4AFC0CA3209F44AC0C53209F019
:10207000C1C0A70196010E94713BB5C0CF3209F4DF
:1020800044C040F4CD3209F0B5C06C197D098E0909
:102090009F09A9C0CC3309F43FC0CE3309F447C02F
:1020A000A9C0C73809F473C098F4C43809F44AC009
:1020B00040F4CC3709F09EC06C297D298E299F29D8
:1020C00092C0C53809F449C0C63809F45AC092C054
:1020D000C93809F44CC008F468C0CA3809F47CC097
:1020E000CB3809F087C004C095958795779567959B
:1020F000CA94D2F778C06C0D7D1D8E1D9F1D73C0D4
:10210000C701B6010E94183D6EC0A70196010E944A
:10211000713BCA01B90167C061E070E080E090E006
:102120002C153D054E055F050CF45DC047C061E010
:1021300070E080E090E0C216D306E406F5060CF4E9
:1021400052C03CC061E070E080E090E0C216D3066F
:10215000E406F5060CF047C031C061E070E080E0B5
:1021600090E02C153D054E055F05ECF527C061E0BC
:1021700070E080E090E02C153D054E055F0599F577
:102180001DC0672B682B692B59F061E005C061E029
:10219000232B242B252B29F4CD28CE28CF2809F456
:1021A00060E070E080E090E01EC061E070E080E000
:1021B00090E02C153D054E055F05A9F060E070E04C
:1021C000CB0111C06C217D218E219F210CC06C257B
:1021D0007D258E259F2507C004C0660F771F881FA9
:1021E000991FCA94D2F7CF91FF90EF90DF90CF90D4
:1021F0000C94FF0F8AE00E94D3268DE5809355054D
:1022000087E495E0909394038093930360E070E0FB
:10221000CB010E94FF0FE3EDF3E0F0935405E09350
:102220005305108208958091960387FD0AC0E82F18
:10223000E695F0E0EF54FF4FE49180FFE295EF70F8
:1022400001C0E4E0F0E0EE0FFF1FEB5EFE4F0190F7
:10225000F081E02D099480919603809357070E94A6
:10226000A31C409157075091960380E02DEF30E07A
:10227000F9019491992371F12E5F3F4F3196E491CA
:10228000491324C05E1322C0E82FF0E0EF50FF4F47
:10229000E491E09357070E94A31C80915707863A68
:1022A000C9F480915707863A81F480919603882378
:1022B00079F08A3029F08D3019F00E94A31CF5CFF7
:1022C0000E94A31C0E941311ECCF08958F5FD0CF02
:1022D0001092570708958091960387FD0DC0E82F4F
:1022E000E695F0E0EF54FF4FE49180FFE295EF7048
:1022F00019F40E94A31CEFCF0C94131190ED980FCA
:102300009A3038F0082E000C990B0E949D3E87559C
:102310000895892F0895EF92FF920F931F93CF9303
:10232000DF93EC010DE089E0F82E9AE0E92E809130
:102330009603823241F4DF91CF911F910F91FF906C
:10234000EF900C94A31C8C3509F03FC00E94A31C95
:1023500090919603923771F028F49E36B1F5E09291
:10236000960333C0943719F0983739F02EC0F092A5
:1023700096032BC00093960328C00E94A31C809153
:10238000960390ED980F9A3038F0982F9F7D9154D6
:10239000963010F084E124C00E947E11182F0E9414
:1023A000A31C9091960380ED890F8A3028F0292F85
:1023B0002F7D2154263070F7892F0E947E11F0E185
:1023C0001F9F800D11248093960380919603FE0138
:1023D00009950E94A31C809196038111A8CF8CE0DF
:1023E0000E94D326EF92FF920F931F93CF93DF9318
:1023F0006091930370919403072E000C880B990B46
:102400000E94FF0F60E070E0CB010E94FF0F60911F
:10241000530570915405072E000C880B990B0E94F0
:10242000FF0FCEEAD7E08991882319F00E94950D1D
:10243000FACF0E94950DC091550584E0C89FE00138
:102440001124CD52DC4F60E070E0CB010E94FF0F01
:1024500080915707883209F05DC00E9413118E01E8
:10246000EE24E394F12C80915707893241F4809156
:102470005707893209F04BC00E9413114BC08823C3
:10248000B1F3823261F56091530570915405072EC6
:10249000000C880B990B0E94FF0F85E99DE00E94BC
:1024A0008B1180E00E94950D0E941311C701F80165
:1024B000008002C0880F991F0A94E2F7092E000CD1
:1024C000AA0BBB0B488559856A857B85842B952B88
:1024D000A62BB72B88879987AA87BB8704C00E9441
:1024E000A3330E94FF0FF80180819181A281B38103
:1024F0000196A11DB11D80839183A283B383809136
:1025000057078C3209F0B3CF0E941311ACCF8FE084
:102510000E94DD26D0939403C0939303DF91CF9163
:102520001F910F91FF90EF900895CF93DF930E943A
:102530008F1CFC018491EF012196882321F00E94D9
:10254000982BFE01F7CFDF91CF9108950E9495124D
:102550000C94CD31853050F08DE00E94951285E0CD
:102560000E94A6126FEF7FEFCB01089594E0899F40
:10257000F0011124E154FC4F6081718182819381CB
:102580000895FF920F931F93CF93DF9300D000D055
:10259000CDB7DEB71091BB07F090BC078091BD07A7
:1025A0009091BE07009157078B839C830E94131163
:1025B0008B819C81033809F444C0F0F40A3209F499
:1025C00099C150F4063209F476C1083209F430C1D9
:1025D000013209F0A3C15DC10D3209F445C118F4FF
:1025E0000B32C1F29BC10E3709F44AC1013809F020
:1025F00095C1612F7F2D87C1023909F4BEC078F4DF
:102600000D3809F4E7C020F40C3809F4D2C086C1B3
:102610000E3809F46AC0013909F49FC07FC1033A3A
:1026200009F486C020F4013A09F4EBC077C1043AFA
:1026300009F485C0053A09F071C160E070E084E0FA
:1026400081C0809157078D3351F40E9413110E946D
:10265000A333AB01BC01812F0E94850D2FC08C38A4
:1026600079F4812F0E94AA120E94FF0F812F0E94ED
:10267000AA12AB01BC014F5F5F4F6F4F7F4F10C07D
:102680008D38E1F4812F0E94AA120E94FF0F812F42
:102690000E94AA12AB01BC014150510961097109A4
:1026A000812F0E94850D0F900F900F900F90DF915A
:1026B000CF911F910F91FF900C941311153050F092
:1026C0008DE00E94951285E00E94A6126FEF7FEFC9
:1026D000CB0119C184E0189FF0011124E154FC4F93
:1026E00060817181828193810EC1E12F17FF0AC041
:1026F000EF7784E0E89FF0011124E956FC4F028156
:10270000138107C0F0E0EE0FFF1FEF5FFC4F059154
:1027100014910E94F211F801099569837A838B83E1
:102720009C830E94E50F69817A818B819C81EBC03B
:10273000812F9F2D0E949628BC0183E003C0612F4A
:102740007F2D82E00F900F900F900F90DF91CF912F
:102750001F910F91FF900C94771D809157078D3337
:1027600041F40E9413110E94A333812F0E94AA2CCE
:102770000FC0812F0E94092D17C0809157078D33FC
:1027800081F40E9413110E94A333812F0E94E42937
:10279000609158077091590780915A0790915B0793
:1027A000B2C0812F0E94AB29BC01990F880B990BF5
:1027B000AAC080915707833811F08DE040C0809106
:1027C000BB070E94AA12AB01BC014F5F5F4F6F4F66
:1027D0007F4F0EC080915707833879F78091BB07F0
:1027E0000E94AA12AB01BC01415051096109710953
:1027F0008091BB070E94850D8091BB070E94AA12A1
:1028000030C080915707883211F088E20FC00E94D3
:1028100013110E94A333CB010E94410F0E94FF0FAE
:1028200080915707893209F43ECF89E20E94D7266A
:102830000E947C3380915C07813819F08EE00E9401
:10284000DD2680915707893221F06FE082E00E94F7
:102850003324609158077091590780915A079091DD
:102860005B070E94FF0F1FCF0E94C1120E94CF0F73
:1028700090958095709561957F4F8F4F9F4F43C086
:102880000E94C1120E94CF0F60957095809590951F
:102890003AC00E94C1120E94CF0F8B019C0161E0DF
:1028A00070E080E090E0012B022B032B61F160E0EF
:1028B00070E0CB0128C080915707833879F460918C
:1028C000BB077091BC07660F771F660F771F6154B7
:1028D0007C4F072E000C880B990BC3CF833A09F06D
:1028E0006CCF6091BB077091BC078091BD07909140
:1028F000BE07B7CF0E94C1120E94CF0FFB016081BB
:1029000070E080E090E00F900F900F900F90DF91BB
:10291000CF911F910F91FF900C94FF0F8EE00E94BA
:10292000D326CF92DF92EF92FF920F931F93CF9314
:10293000DF93EC016A017B01E889F98982E08083F9
:102940004115514E61057105B1F060E079E08DE30C
:1029500090E0A70196010E94D23B89019A010150A3
:102960001109210931093695279517950795980181
:1029700001151041A8F0E889F989108260E874E82F
:102980008EE190E0A70196010E94D23BDA01C901D5
:102990000197A109B109B695A795979587959C01CF
:1029A000EC85FD853083EE85FF852083188EEC89CC
:1029B000FD8986E08083EA89FB898081806180834C
:1029C000EA89FB89808188608083EA89FB8980812C
:1029D00080688083EA89FB8980818F7D8083DF9195
:1029E000CF911F910F91FF90EF90DF90CF900895BE
:1029F00068EE73E080E090E00E94EF2A8091750617
:102A000090917606009731F040E051EE60E070E082
:102A10000E9491148091730690917406009731F092
:102A200040E051EE60E070E00C94B60A08958F9299
:102A30009F92AF92BF92CF92DF92EF92FF920F934D
:102A40001F934B015C016B017C01C20ED31EE41E7F
:102A5000F51E0115110571F0A501940168EE73E0F2
:102A600088E00E94A22DC701B6010E94EF2A015002
:102A70001109EFCF1F910F91FF90EF90DF90CF9052
:102A8000BF90AF909F908F900895EF92FF920F9319
:102A90001F93CF93DF93EC01E12CF12C00E010E0C9
:102AA0008091710690917206DC01ED91FC91008499
:102AB000F185E02D0995892B81F461E070E080E0DB
:102AC00090E00E94EF2A2FEFE21AF20A48EEE41695
:102AD00043E0F40628F38FEF46C080917106909191
:102AE0007206DC01ED91FC910284F385E02D0995DD
:102AF0000930110538F5F801EC5CFF4F0C943C3DB2
:102B00008F3E71F61882898328C028813981A901F6
:102B1000482BCA019983888381309F4EF1F020C0F1
:102B2000FE01E00FF11F808318C08E8316C01F8244
:102B3000888713C02F813885D901A82BCD019887AC
:102B40008F830BC0FE01E00FF11F80832F8138853A
:102B5000C80108978217930729F00F5F1F4FA0CF76
:102B60008EEF01C080E0DF91CF911F910F91FF9018
:102B7000EF900895DF92EF92FF920F931F93CF9300
:102B8000DF93EC018091710690917206DC01ED916A
:102B9000FC9169810190F081E02D09958091710689
:102BA00090917206DC01ED91FC910190F081E02D95
:102BB000688109958091710690917206DC01ED9112
:102BC000FC910190F081E02D6A8109958091710658
:102BD00090917206DC01ED91FC910190F081E02D65
:102BE0006B8109958091710690917206DC01ED91DF
:102BF000FC910190F081E02D6C8109958091710626
:102C000090917206DC01ED91FC910190F081E02D34
:102C10006D8109958091710690917206DC01ED91AC
:102C2000FC910190F081E02D6E810995EF80F88490
:102C3000B2E0EB0EF11C80917106909172060F2D9F
:102C40001127DC01ED91FC910190F081E02D602FC6
:102C500009958091710690917206DC01ED91FC91CD
:102C60000190F081E02D6E2D09950E0D111D8E81C4
:102C7000080F111DD12CED2CF12C2F81388580915E
:102C8000710690917206DC01ED91FC91E216F3065B
:102C900078F4EC0EFD1E0190F081E02DD70119961D
:102CA0006C910995F7018185080F111DD394E3CF2D
:102CB0000190F081E02D612F09958091710690912E
:102CC0007206DC01ED91FC910190F081E02D602F06
:102CD000DF91CF911F910F91FF90EF90DF900994BA
:102CE000CF93DF93CDB7DEB7CB54D1090FB6F894AD
:102CF000DEBF0FBECDBF92E02B969FAF2B972C96D9
:102D00008FAF2C979E01265B3F4F42E050E061E081
:102D1000CE0101960E949C07CE0101960E94BA1531
:102D2000CE0101960E944515811105C08F81873023
:102D300011F48A8501C081E0C55BDF4F0FB6F894BE
:102D4000DEBF0FBECDBFDF91CF910895CF93DF934C
:102D5000CDB7DEB7CA54D1090FB6F894DEBF0FBEA7
:102D6000CDBF81E02B968FAF2B979E01265B3F4F07
:102D700041E050E061E0CE0101960E949C07CE0147
:102D800001960E94BA15CE0101960E944515811147
:102D900005C08F81873011F48A8501C081E0C65B50
:102DA000DF4F0FB6F894DEBF0FBECDBFDF91CF91DE
:102DB0000895DF92EF92FF920F931F93CF93DF93CB
:102DC000CDB7DEB7CD54D1090FB6F894DEBF0FBE34
:102DD000CDBFD82E6091920570E080E090E002E6D1
:102DE00025E04AE00E9442300E94CD3188ED93E018
:102DF0000E94EB318091920581110CC008E010E037
:102E000024E130E040E050E064E170E080E090E0F8
:102E10000E941715809191058111EFC00E94A6169E
:102E2000182F823009F0E9C081E0809392050E945A
:102E3000180C89EC93E00E94EB3185E0E82EF12C30
:102E40000E94A616811104C01092920591E001C063
:102E500090E081E0E81AF10819F0913021F0F0CF0C
:102E6000913009F0BEC081E00E9470168111C7C088
:102E700080EB93E00E94EB3181E080939105FF2489
:102E8000F39490919105913009F0ADC083E993E0FE
:102E90000E94EB318091920581110CC008E010E096
:102EA00024E130E040E050E064E170E080E090E058
:102EB0000E9417150E94A616823029F491E0909383
:102EC00092058093910580919105823009F08DC023
:102ED000109291050E94180C80E893E00E94EB315B
:102EE0000CE010E00E94A616811104C01092920519
:102EF00093E0F92E0150110983E019F0F812F2CF96
:102F000008C0F81631F08BE693E00E94EB3115E033
:102F100076C085E593E00E94EB3182E00E94701656
:102F2000811165C085E02B968FAF2B979E01265BA4
:102F30003F4F41E050E061E0CE0101960E949C07C6
:102F4000CE0101960E94BA15CE0101960E94451548
:102F500081114FC08F81873009F04BC08A85811164
:102F600048C02E961CAE1DAE1EAE1FAE2E9786E03C
:102F70002B968FAF2B9781E02C968FAF2C972E96A8
:102F8000DFAE2E979E01265B3F4F44E050E061E0AC
:102F9000CE0101960E949C07CE0101960E94BA15AF
:102FA000CE0101960E944515811125C08F81873081
:102FB00011F59A8591111FC01092920510929105FA
:102FC00001E010E020E030E0A90168EB7BE080E068
:102FD00090E00E9417158DE493E00E94EB3119E018
:102FE0000EC011E00CC013E00AC014E008C016E0E7
:102FF00006C017E004C018E002C0F12C42CF812FB8
:10300000C35BDF4F0FB6F894DEBF0FBECDBFDF91BD
:10301000CF911F910F91FF90EF90DF900895CF9384
:10302000C82F81E08093900586E592E00E94FB31F5
:1030300082E00E941E238C2F0E94D9168930E1F471
:103040008C2F90E061E09D5F0E94633B82E0809363
:103050009005EEE5F5E0119285E0E039F807D9F743
:1030600062E672E08EE595E00E94B53E8EE595E061
:103070000E94FB3182E001C085E0CF910895EF927C
:10308000FF920F931F93CF93DF9381E080935D05B1
:10309000C1E0D3E07E0183E0F81AC03883E0D807AE
:1030A000E9F0CE010E945B3B9E012F5F3F4F8111F3
:1030B00013C08E2D0E94D916182F682F70E080E063
:1030C00090E000E725E04AE00E9442300E94CD31C6
:1030D0001930B9F084E052C0E901DCCFEEE5F5E04B
:1030E000119285E0E039F807D9F762E772E08EE5E2
:1030F00095E00E94B53E8EE595E00E94FB3183E0AD
:103100003DC0109292051092910582E080935D057A
:1031100061E0CE010E94633BEEE5F5E0119285E0AF
:10312000E039F807D9F764E872E08EE595E00E948F
:10313000B53E87E595E010925705FF92EF9227E99B
:1031400031E03F932F939F938F930E94D83E67E582
:1031500075E08EE595E00E94B53E64E372E08EE591
:1031600095E00E94B53E8EE595E00E94FB310F9000
:103170000F900F900F900F900F9082E0DF91CF9102
:103180001F910F91FF90EF9008950F931F93CF938E
:10319000C82F8091AD06811113C00E943B2BDC012A
:1031A000CB018053984FAF4FBF4F8093A9069093A8
:1031B000AA06A093AB06B093AC0681E08093AD065F
:1031C0008091A10681110DC00E94CA2A60939D06BC
:1031D00070939E0680939F069093A00681E0809353
:1031E000A106C11119C081E08093560510929C067A
:1031F00010929B060E943B2BDC01CB018053984F21
:10320000AF4FBF4F8093A9069093AA06A093AB0639
:10321000B093AC0610929A0680E396E00E948D0A65
:1032200080E396E00E945004892B09F413C180E3E7
:1032300096E00E946804682F8D3011F08A3039F4CE
:1032400010929C0610929B0610929A0612C18091D1
:103250009C06811105C0643209F0FCC081E0E3C026
:10326000813039F4673411F482E0DDC010929C069D
:10327000F1C0823021F46035C9F783E0D4C08330D7
:1032800021F4673499F784E0CEC0843021F46734A8
:1032900069F785E0C8C0853021F4613439F786E0EC
:1032A000C2C08630C9F46C3209F787E080939C066F
:1032B0008091960690919706A0919806B0919906F4
:1032C0000196A11DB11D8093960690939706A09339
:1032D0009806B0939906BEC0873051F46C3209F05D
:1032E00083C080919A06813009F0B4C088E022C082
:1032F000883051F46C3209F077C080919A068130A1
:1033000009F0A8C089E085C0893021F56C3261F0F0
:103310006E3409F469C0633509F466C010929C06E6
:1033200010929B0681E0A8C080919A06813009F036
:1033300091C08AE080939C0680919B0690E06CE2AD
:1033400081589C4F0E94633B80919B068F5F8093C6
:103350009B0661C08A3051F46C3209F045C08091FF
:103360009A06813009F076C08BE053C08B3021F58E
:103370006C3251F06735C1F16534B1F110929C06A1
:1033800010929B0683E078C080919A06813009F004
:1033900061C08CE080939C0610929A0680919B06F7
:1033A00090E06CE281589C4F0E94633B80919B06A9
:1033B0008F5F80939B064EC08C3029F46C3209F0ED
:1033C00049C08DE030C08D3029F46C3209F042C024
:1033D0008EE029C08E3021F46C32E1F58FE023C0FD
:1033E0008F30E1F46C3281F080919B0690E081583F
:1033F0009C4F0E94633B80919B068F5F80939B064E
:1034000081E080939A0626C080919A06813011F55A
:1034100080E180939C0610929A061CC0803159F47A
:103420006D3421F481E180939C0614C010929C06B7
:1034300010929B060FC0813169F460919B06673042
:1034400048F08BEB93E00E94633B10929B06109236
:103450009C060FC00E943B2B0091A9061091AA0662
:103460002091AB063091AC060617170728073907DD
:1034700010F080E001C082E0CF911F910F9108957C
:1034800008952091D2068091CE069091CF062230E9
:1034900039F0233041F0213059F4FC01808105C01E
:1034A000FC01849102C00E945B3B809396030895C7
:1034B0008AE10E94D326CF92DF92EF92FF92CF93C0
:1034C000E0919303F0919403662371F04085518558
:1034D00062857385411551056105710541F0FA0159
:1034E00034962081318105C02481358102C020E0DD
:1034F00030E0FC01C080D180E280F380C4812F3FA6
:103500003F4F39F480E20E94982B8FEF9FEF0E948B
:10351000EF31C093D206C092CE06D092CF06E09291
:10352000D006F092D106CC2339F0CF91FF90EF90E6
:10353000DF90CF900C94411ACF91FF90EF90DF90E5
:10354000CF900895CF93DF930E943A30C0E8D0E047
:10355000CE010E945B3B8F3F21F06FEFCE010E94B6
:10356000633B2196C11583E0D80791F7DF91CF9196
:103570000895CF93809157078B37F1F40E94131170
:10358000C0E080915707882309F44FC08B3711F4AE
:10359000CF5F0FC08D3739F41C161CF0CF910C94FF
:1035A0001311C15006C0823221F480E49AE10E94D6
:1035B0008B110E941311E5CF8F3851F08E3941F0F5
:1035C000C0E010C08B3371F18B3719F10E941311D9
:1035D000809157078111F6CF28C0883241F4CF5F20
:1035E0000E941311809157078111F7CF1EC08932B5
:1035F00021F41C169CF6C150F3CF823229F480E4EA
:103600009AE10E948B11ECCFC111EACF8B3341F7C5
:10361000C5CF0E94B91A80915707823A31F40E94AF
:103620001311A8CF0E941311F6CFCF9108954F9296
:103630005F926F927F928F929F92AF92BF92CF9242
:10364000DF92EF92FF920F931F93CF93DF9380E06F
:1036500090E00E94410F16161706180619063CF452
:1036600081E090E00E94410FCB010E94EF31C12C1C
:10367000D12C76018DEC882E8CEC982EA92C8DE324
:10368000B82E00E010E083E995E00E941134892B08
:10369000D1F383E995E00E94EF33EC018D30910581
:1036A00039F40E94CD31011107C0C701B60180C0B5
:1036B0008A309105B1F4F5CF112359F0A701960195
:1036C000C701B6010E94033CA70196010E94033C7A
:1036D0006FC066277727CB016C197D098E099F097A
:1036E00067C0C0978A30910560F52C01990F660874
:1036F00077081123C9F0C301B2010E943B3AA5012A
:1037000094010E949A3AA70196010E94043C6B0121
:103710007C0120E030E040E251E4C501B4010E94A8
:10372000703C4B015C0140C0AAE0B0E0A7019601EB
:103730000E94903B6B017C01C40CD51CE61CF71C5D
:1037400033C0CE32D10551F411119DCFC701B6015E
:103750000E943B3A6B017C0111E026C0CD32D105BD
:1037600021F4011190CF01E01FC0C830D10519F03C
:10377000CF37D105B9F4C114D104E104F104A1F0AB
:10378000C701B6012AE030E040E050E00E94713B02
:1037900069017A0188E00E94982B80E20E94982BB0
:1037A00088E003C087E001C08C2F0E94982B6BCF6C
:1037B000DF91CF911F910F91FF90EF90DF90CF900D
:1037C000BF90AF909F908F907F906F905F904F9041
:1037D000089580E090E00E94410F16161706180623
:1037E00019063CF481E090E00E94410FCB010E9459
:1037F000EF3183E995E00E941134892BD1F383E9FD
:1038000095E00E94EF33BC01990F880B990B089546
:103810000C943B2B82E00E9463248091930390914F
:103820009403DC011497FC0138978D919D910D90C4
:10383000BC91A02D008004C0B595A795979587955C
:103840000A94D2F7BC01CD016170772788279927A8
:1038500008950F931F9382E00E9463248091930345
:1038600090919403FC01389741E050E060E070E0F3
:10387000008004C0440F551F661F771F0A94D2F7BB
:10388000349680819181A281B3818A019B01082BAA
:10389000192B2A2B3B2BC901B8011F910F910895B9
:1038A0000F931F9382E00E94632420919303309131
:1038B0009403F901389781E090E0A0E0B0E0008047
:1038C00004C0880F991FAA1FBB1F0A94D2F78095C6
:1038D0009095A095B0953496408151816281738115
:1038E0008C019D010423152326233723C901B80128
:1038F0001F910F91089583E00E946324E091930348
:10390000F09194033C9780819181A281B381892BAE
:103910008A2B8B2B11F00C94291C0C94501C1F9398
:10392000CF93DF93182FC7ECD4E0CE01112339F0E9
:103930000E941C3A0196C80FD91F1150F6CFDF9193
:10394000CF911F9108958091CE069091CF06A091BE
:10395000D006B091D1060196A11DB11D8093CE066F
:103960009093CF06A093D006B093D1060C94411A41
:103970001F93CF93DF93182FC0E0D0E0112379F08D
:1039800084E0CC0FDD1F8A95E1F7809196030E94B9
:103990007E11C80FD11D0E94A31C1150EFCFCE0184
:1039A000DF91CF911F910895CF92DF92EF92FF9216
:1039B0000F931F93CF93DF93CDB7DEB72B970FB63F
:1039C000F894DEBF0FBECDBF8E83798768875B8793
:1039D0004A878091CE069091CF06A091D006B091F3
:1039E000D10689839A83AB83BC831091D2061D8351
:1039F000209157072F836091BB077091BC0780917E
:103A0000BD079091BE070E94FF0F11111BC087EBED
:103A100096E00E94C9390197A9F40E943A301092A9
:103A20005D070E94FD101092D2061092CE061092F1
:103A3000CF061092D0061092D1066FEF7FEF8FEF76
:103A40009FEF46C0888599856C01E12CF12C8A8511
:103A50009B85019671F08E818093D206C092CE062E
:103A6000D092CF06E092D006F092D106882359F08A
:103A700008C080E20E94982B8FEF9FEF0E94EF31E9
:103A8000EACF0E94411A0E941311E12CF12C00E0B0
:103A900010E006C0803A41F00E949F1D7B018C011E
:103AA000809157078111F6CF61E0CE0101960E9407
:103AB0005B1A9F81909357070E94CF0F6093BB07BB
:103AC0007093BC078093BD079093BE07B701C801F0
:103AD0002B960FB6F894DEBF0FBECDBFDF91CF910E
:103AE0001F910F91FF90EF90DF90CF900895CF93AB
:103AF000DF9300D000D0CDB7DEB76B837C838A83A1
:103B00000E94F211E0919303F09194034481558156
:103B10006B817C818A810E94D41C6B837C838A8325
:103B200099830E94E50F6B817C818A8199810F9036
:103B30000F900F900F90DF91CF910C94FF0F2F9269
:103B40003F924F925F926F927F928F929F92AF922D
:103B5000BF92CF92DF92EF92FF920F931F93CF937A
:103B6000DF93CDB7DEB767970FB6F894DEBF0FBE11
:103B7000CDBF83E995E00E941134892B79F083E968
:103B800095E00E94EF33039749F486E00E94A61265
:103B900061E070E087EB96E00E94E9390E9415240D
:103BA000623371058105910510F485E1F1C18091C1
:103BB0005707873A09F085C00E9413118091CE06FD
:103BC0009091CF06A091D006B091D1068A8B9B8BA5
:103BD000AC8BBD8B8091D2068E8B0E94131180918D
:103BE00057078B3309F44CC0809157078C3211F47E
:103BF0000E9413110E949F1D809157078C32A1F3E0
:103C000060E0CE0142960E945B1A0E9413110E944E
:103C1000B91A809157078B33B1F48091CE069091F9
:103C2000CF06A091D006B091D10689839A83AB8349
:103C3000BC838091D2068D830E9413118091570717
:103C40008B3341F40CC00E94A333672B682B692B84
:103C500021F727C0893219F00E94B91A02C00E94C8
:103C600013110E949F1D60E0CE0101960E945B1A15
:103C70000E941311809157078B3311F0893251F450
:103C80000E941311BDCF0E949F1D809157078C3257
:103C900009F0B6CF809157078C32A9F70E94131113
:103CA000F2CF0E941311809157078B3329F089328C
:103CB00019F00E94B91A02C00E9413110E94B91A89
:103CC0008DC3803949F58091CE069091CF06A091A1
:103CD000D006B091D10689839A83AB83BC8380914F
:103CE000D2068D83E12CF12C00E010E060E0CE01E3
:103CF00001960E945B1A0E9413110E94A333672B46
:103D0000682B692BF1F00E949F1D7B018C01809133
:103D10005707803A59F7FFC38F3821F50E941311D6
:103D20000E94A333672B682B692B71F00E949F1DA3
:103D30007B018C0180915707823A09F0ECC30E9405
:103D400013110E94B91AE7C30E94B91A809157074C
:103D5000823A09F043C30E9413110E949F1D7B0108
:103D60008C01D9C38B37B1F40E941311E12CF12CD3
:103D700000E010E080915707882309F4CCC3803A13
:103D800009F4C9C38D3709F4D5C30E949F1D7B0177
:103D90008C01F0CF8F39A9F40E941311809157073D
:103DA000882339F08B3329F00E94A3337B018C01E7
:103DB00004C0E12CF12C00E010E080EA809357076A
:103DC000AAC38E3909F072C0C090BB07D090BC075F
:103DD000E090BD07F090BE070E9413110E94A3332C
:103DE0008091580790915907A0915A07B0915B07AD
:103DF000B7FF08C0109258071092590710925A073F
:103E000010925B0700915807809157078B3711F08C
:103E10008BE720C20E9413114EE9B42E0023B9F1A2
:103E200010915707112321F11D3711F18091CE0612
:103E30009091CF06A091D006B091D10689839A8344
:103E4000AB83BC838091D2068D83C090BB07D0909A
:103E5000BC07E090BD07F090BE070E94B91A8091A0
:103E60005707882319F08D3709F00150B12ED6CFAE
:103E700060E0CE0101960E945B1AB0925707C09293
:103E8000BB07D092BC07E092BD07F092BE070E942C
:103E90009F1D7B018C0180915707882309F43BC348
:103EA0008D3709F447C30E94B91AF5CF843909F058
:103EB0009BC00E94131180915707803831F0835ABC
:103EC000833018F087E10E94D3264DE050E06EEA7F
:103ED00077E0CE0101966C010E94C93EC6010E94A6
:103EE0003F290E941311809157078B3711F08BE700
:103EF0004AC20091CE061091CF0658010E94B91A0D
:103F0000E091CE06F091CF0631973F010E171F07C3
:103F1000A0F0F60101900020E9F731977F01EC183D
:103F2000FD08470192E0890E911CC301801B910B93
:103F3000880E991E80E890E005C0319781818D3709
:103F400021F7E7CF9C01280D391D21153340F8F4E6
:103F50008C010F3F22E01207D0F4C8010E945B3BA6
:103F60008F3F51F4C8010E94B6288F3FFFEF9F0793
:103F700031F480E093E003C00F5F1F4FEACF9C0154
:103F8000201B310B28153905E8F2480103C081E1F7
:103F90000E94D026F60161916F01C801662329F0C5
:103FA0000E94633B0F5F1F4FF5CF0E94633BFFEF03
:103FB000EF1AFF0A8E0C9F1CA614B70468F42FEFAB
:103FC000A21AB20AF50131976081C4010E94633BD5
:103FD0004FEF841A940AF0CF60E0C4010E94633B63
:103FE00080E10E94A612FAC18639A9F50E94131138
:103FF00080915707835A833008F064CF0E941311D1
:10400000809157078C32E9F46091BB077091BC072F
:104010008091BD079091BE070E94FF0F0E9413116F
:104020000E94A333C0905807D0905907E0905A07D8
:10403000F0905B070E94CF0FDC01CB01B701A60116
:1040400007C040E050E0BA018091BB079091BC07E7
:104050000E940A30C3C1883909F045C00E9413117B
:10406000809157078A3219F40E943A3052C08B333C
:1040700011F081110CC08091B606882329F0E091DF
:10408000B506E83030F1AAC10E943A30A7C1833AA0
:10409000D1F48EEA97E00E94FA288F3FEFEF9E0757
:1040A00009F49CC1EEE9F7E02FEF3FEF4081518129
:1040B0004817590711F431832083329647E0EE3ACE
:1040C000F407A1F78BC10E94A333683008F086C1C2
:1040D000E62FF0E0EE0FFF1FE256F84F8FEF9FEF55
:1040E000918380837BC18539B9F40E94131180913B
:1040F0005707833A29F48EEA97E00E943F2909C0C6
:104100008A3219F40E94A21A04C0803811F087E1A3
:104110003AC10E94131162C18C3919F40E94131123
:1041200084C0893921F4E0E0F0E0099557C187396E
:1041300069F50E9413110EE917E0C12CD12C76010C
:10414000F80180819181019699F020E240E0C70159
:10415000B6010E94A1318AE30E94982B80E20E945E
:10416000982BF801808191810E9485280E94CD3191
:104170000E5F1F4FFFEFCF1ADF0AEF0AFF0A28E09A
:10418000C216D104E104F104D9F628C18A39C9F470
:104190000E94131141E150E063E074E0CE0101960A
:1041A0000E940A3AEE24E39400E813E020E030E0B5
:1041B00040E850E060E070E0CE0101960E94E12608
:1041C0000DC18B39A9F50E94131140E050E067E45E
:1041D00072E082E00E94D41C83E194E00E944A29AC
:1041E00088EE91E00E944A2989E10E94951286E1B9
:1041F00091E00E944A290E94CD3110E08091950300
:10420000181778F444E0149FF0011124E956FC4F8C
:10421000808191810E94EF3180E20E94982B1F5F84
:10422000EDCF0E94CD310E94CD310E94CB28D6C067
:104230008D3909F0D8C00E9413118091570783323D
:1042400089F40E9413110E94A333909157079A3367
:1042500019F08AE30E94D7266F8B0E9413118F8971
:104260000E943C3280915707823229F488E99BE210
:104270000E948B118AC08B3309F496C0882309F4FD
:1042800093C00E947C33809157078A3309F080C025
:104290000E94131180915707833809F051C0809113
:1042A000BB079091BC07A091BD07B091BE078731B5
:1042B0009105A105B10561F4609158077091590706
:1042C00080915A0790915B0700E320E040E110C025
:1042D00081309105A105B10571F460915807709185
:1042E000590780915A0790915B0700E320E042E074
:1042F0000E9442304AC088319105A105B10529F4D8
:10430000809158070E94982B40C082319105A105E9
:10431000B10539F480915807909159070E94EF3107
:1043200034C00597A105B10581F5609158077091DA
:10433000590780915A0790915B070E94E43025C08D
:10434000813200F18091580790915907A0915A0746
:10435000B0915B07AC01BD01415051096109710980
:10436000409358075093590760935A0770935B071F
:10437000181619061A061B0644F4809157070E9466
:10438000982BE0CF8BE00E94DD260E9413110CC019
:10439000609158077091590780915A0790915B0777
:1043A00020E040E00E94A131809157078B3311F04B
:1043B000811103C00E94CD310FC08C3209F03DCF76
:1043C0000E941311809157078B3331F0882321F01D
:1043D00080E20E94982B31CF10925D07E12CF12CE6
:1043E00000E010E098C08B33C9F38A3309F089C02C
:1043F00082E00E94B81C6C0184E00E94B81C4C0151
:1044000082E00E94B81C182F84EB94E00E94EB31EC
:10441000113021F4E0E0F0E0099584C0111182C070
:104420008114910411F40E94A21A0C2D34018C2DD8
:10443000B12CA12C2601552424E6322E1FEF180F93
:104440008823D1F183E0282EE12CF12C2A9422201C
:10445000A1F083E995E00E941134892BD1F383E91F
:1044600095E00E94EF3394E0EE0CFF1C9A95E1F783
:104470000E947E11E80EF11CE9CFFE2CBE0C9201C9
:10448000211B3109329EC001339E900D1124B201CF
:104490000E94283D2A2D30E02617370721F0A62E4E
:1044A0008EE20E94982B6F2DC3010E94633BFFEFA9
:1044B0006F1A7F0A812FC2CF10E020E030E0A40104
:1044C00060E070E0EE24E3948CE493E00E94E12647
:1044D00082E00E94B81C2B2D30E02817390719F014
:1044E0006EE182E00CC0B6017727072E000C880B26
:1044F000990B20E040E00E94A13160E08AE10E9437
:1045000033240E947C33E0905807F09059070091C3
:104510005A0710915B07809157078B3341F40E9433
:10452000131105C061E070E080E090E006C0B701C3
:10453000C80103C00E941311EECF67960FB6F8941E
:10454000DEBF0FBECDBFDF91CF911F910F91FF90C6
:10455000EF90DF90CF90BF90AF909F908F907F9023
:104560006F905F904F903F902F9008959C01909195
:1045700095039A3030F089E10E94951285E00C9401
:10458000A61284E0989FF0011124E956FC4F318374
:104590002083738362839F5F909395030895833094
:1045A00081F028F4813099F08230A1F008958730AD
:1045B000A9F08830B9F08430D1F4809180008F7DEB
:1045C00003C0809180008F7780938000089584B528
:1045D0008F7702C084B58F7D84BD08958091B0002F
:1045E0008F7703C08091B0008F7D8093B0000895D5
:1045F000FF920F931F93CF93DF93EC01CE010E94A4
:104600005B3BF82E8FEFF81651F08E010F5F1F4FB6
:104610006FEFCE010E94633BE801F110EFCFCE01B6
:10462000DF91CF911F910F91FF900895CF93CFEF1E
:104630000E94CD31C150E1F7CF9108958F929F92A2
:10464000AF92BF92CF92DF92EF92FF921F93CF93E0
:10465000DF9300D000D0CDB7DEB7182F19821A82B1
:104660001B821C8281E090E00E94563D4C01092E85
:10467000000CAA08BB08AE014F5F5F4F052E000C6F
:10468000660B770B49835A836B837C83113041F42B
:1046900020915507211116C083E0809355070DC066
:1046A00081149104A104B10491F4133011F4109217
:1046B00055078AE896E00E94EB3160E070E080E008
:1046C00090E0A3C081149104A104B10491F30E946D
:1046D000EB3DC980DA80EB80FC80C818D908EA0875
:1046E000FB08112309F48AC088E796E00E94DC31B8
:1046F0006CE073E880E090E00E94D33185E696E0BC
:104700000E94DC316EE473E06050714080E090E024
:104710000E94D33189E496E00E94DC3160E070E0D1
:10472000CB010E94D3318EE396E00E94DC3169E434
:1047300078E06E54734080E090E00E94D3318DE2C7
:1047400096E00E94DC3189E498E0A5019401281BE1
:10475000390B41095109CA01B9010E94D3318BE1DA
:1047600096E00E94DC3189809A80AB80BC808FEF1C
:1047700098E0A0E0B0E0BC01CD01681979098A0990
:104780009B090E94D33188E096E00E94DC31C7018A
:10479000B6010E94D33183EE95E00E94DC3160E0E7
:1047A00071E080E090E00E94DC3083ED95E00E94B3
:1047B000DC316FEF73E080E090E00E94DC308EEC43
:1047C00095E00E94DC3160E870E080E090E00E94BB
:1047D000DC308CEC95E00E94EB3132E3C316D1045F
:1047E000E104F10420F4C701B6010E94D331133073
:1047F00011F410925507B601C70107C042E3C41671
:10480000D104E104F104B8F7EECF0F900F900F90B0
:104810000F90DF91CF911F91FF90EF90DF90CF909D
:10482000BF90AF909F908F90089580E090E00E949D
:10483000410F613071058105910539F4E0919303D1
:10484000F0919403808580FF03C080E00C941E23C8
:1048500081E090E00E94410F862F0E941E2360E0BD
:1048600070E0CB010895082F162F10925D078091FC
:10487000D2068130D1F4C091CE06D091CF06CD5D65
:10488000D640C837D10588F40E94CD318EE50E940C
:10489000982B2197CE3F8FEFD80711F08DE2F7CFFD
:1048A0008EE50E94982B0E94CD31802F0E94951298
:1048B000112319F0812F0E94A61261E070E087EBAE
:1048C00096E00E94E939E0919303F091940390E01F
:1048D000A0E0B0E04081518162817381481759079F
:1048E0006A077B0724F46BE182E00E943324089579
:1048F0008F929F92AF92BF92CF92DF92EF92FF92F0
:104900000F931F9385E00E946324E0919303F0913D
:104910009403DF015097CD90DD90ED90FC901397BC
:1049200018968D909D90AD90BC90139714968D9194
:104930009D910D90BC91A02D9C01AD0128193909C4
:104940004A095B09DF0154978D919D910D90BC91AF
:10495000A02DBC01CD016C197D098E099F090E9413
:10496000183D3C970081118122813381A901980172
:10497000281939094A095B090E94713BCA01B9012A
:104980006C0D7D1D8E1D9F1D1F910F91FF90EF904F
:10499000DF90CF90BF90AF909F908F9008950F932E
:1049A0001F9382E00E94632480919303909194036B
:1049B000FC0138974081518162817381349681E096
:1049C00090E00081118122813381012B022B032B86
:1049D00011F480E090E00E94FF3160E070E0CB01D4
:1049E0001F910F910895CF92DF92EF92FF920F9354
:1049F0001F9383E00E9463242091930330919403DA
:104A0000F9013C97C080D180E280F38038968081A4
:104A100090E0FC01ED52F94F6491FC01EF50F94F29
:104A2000E491D90118978C91882311F0462F01C089
:104A300040E0F0E0EE0FFF1FE753F94F85919491AE
:104A4000970186013F700E9434356115710581051B
:104A5000910549F0DC01CB010196A11DB11DBC01FE
:104A6000CD019F7003C060E070E0CB011F910F91FA
:104A7000FF90EF90DF90CF90089582E00E94632432
:104A80008091930390919403FC013897DC01149773
:104A900060818D919C910E94633B60E070E0CB014E
:104AA000089581E00E946324E0919303F0919403C0
:104AB0003497808191810E945B3B682F70E080E099
:104AC00090E0089582E00E94632480919303909186
:104AD0009403FC01389760817181349680810E9433
:104AE000AA2C60E070E0CB01089581E00E9463246D
:104AF000E0919303F0919403349780810E94092DF3
:104B0000BC01990F880B990B0895CF92DF92EF9219
:104B1000FF9283E00E9463242091930330919403D9
:104B2000F9013497C080D180E280F38034976081AE
:104B3000718182819381C616D706E806F90664F072
:104B400034976081718182819381C616D706E80609
:104B5000F90614F4C701B601FF90EF90DF90CF90F3
:104B600008950F931F9382E00E9463248091930322
:104B700090919403FC013897DC0114970D911D91DD
:104B80002D913C91608171818281938160177107C1
:104B90008207930714F4C901B8011F910F9108957A
:104BA0000F931F9382E00E9463248091930390915E
:104BB0009403FC013897DC0114970D911D912D9100
:104BC0003C916081718182819381061717072807C4
:104BD000390714F4C901B8011F910F9108950F937B
:104BE0001F9381E00E946324E0919303F09194036A
:104BF0003497008111812281338137FD0AC061E041
:104C000070E080E090E0012B022B032B31F460E098
:104C100004C06FEF7FEF8FEF9FEF1F910F9108950B
:104C200081E00E946324E0919303F0919403349710
:104C3000608171818281938197FF07C090958095F3
:104C4000709561957F4F8F4F9F4F089582E00E942E
:104C500063248091930390919403FC013497019015
:104C6000F081E02DDC0118978C91808360E070E08A
:104C7000CB01089581E00E946324E0919303F091B9
:104C8000940334970190F081E02D608170E080E022
:104C900090E00895CF92DF92EF92FF920F931F93CF
:104CA00081E00E9463248091040190910501A0910C
:104CB0000601B0910701C0900001D0900101E09081
:104CC0000201F0900301AC01BD0129E176956795E1
:104CD000579547952A95D1F74C0D5D1D6E1D7F1D8B
:104CE00037E0880F991FAA1FBB1F3A95D1F7842779
:104CF0009527A627B7278093040190930501A093D9
:104D00000601B0930701BC01CD019F77E0919303A9
:104D1000F0919403349720813181428153810E9424
:104D2000713B9701860149E13695279517950795BF
:104D30004A95D1F7015111442245314257E0CC0C3C
:104D4000DD1CEE1CFF1C5A95D1F7C026D126E226A9
:104D5000F326C0920001D0920101E0920201F0928C
:104D600003011F910F91FF90EF90DF90CF90089576
:104D700083E00E9463248091930390919403FC014B
:104D80003C972081318142815381349660817181C9
:104D9000349680810E94A22D60E070E0CB010895DE
:104DA00065E00E943324682F81E00E9433240E9432
:104DB000982B60E080E00E943324682F80E00E94FE
:104DC00033242F923F924F925F926F927F928F92F5
:104DD0009F92AF92BF92CF92DF92EF92FF920F938A
:104DE0001F93CF93DF93CDB7DEB769970FB6F894D3
:104DF000DEBF0FBECDBF2A013B01480159013E2C49
:104E0000009711F00E94FB318EEB95E00E94DC319F
:104E100020E248E0C501B4010E94A1310E94CD31D9
:104E200073016201D501C401840D951DA61DB71D36
:104E30008A8B9B8BAC8BBD8B8EE2282E8A899B89BB
:104E4000AC89BD8946015701C816D906EA06FB069A
:104E500008F0D0C09FE089229924AA24BB248114A1
:104E60009104A104B10451F04C145D046E047F045C
:104E700011F1311083C0F60110818FC0C414D50424
:104E8000E604F704C1F08BEB95E00E94DC31CE0123
:104E900001960E94EF3187EB95E00E94DC31C7015B
:104EA000B60161507109810991090E94DC3083EBE0
:104EB00095E00E94EB318EEA95E00E94DC3100E340
:104EC00028E040E1C701B6010E9442308BEA95E03C
:104ED0000E94DC314C145D046E047F0451F6B30172
:104EE000A20181149104A104B104E1F4DB01CA011F
:104EF0008F709927AA27BB27892B8A2B8B2B09F424
:104F0000B8CF87EA95E04E8B5F8B688F798F0E94D0
:104F1000DC314E895F89688D798D4F5F5F4F6F4FB0
:104F20007F4FE4CF83EA95E04E8B5F8B688F798F5C
:104F30000E94DC314E895F89688D798DDB01CA0161
:104F40008F709927AA27BB270197A109B109E1E032
:104F5000F0E0EC0FFD1FE80FF91FA0E2A083415025
:104F6000510961097109DB01CA018F709927AA27CC
:104F7000BB27892B8A2B8B2BA9F67BCFB1E03B1269
:104F800005C0C6010E945B3B182F07C0E2E03E123D
:104F900003C0F601149101C01FEF80E20E94982B1C
:104FA000812F90E0A0E0B0E000E322E040E1BC010E
:104FB000CD010E94423080EE810FE1E0F0E0EC0F85
:104FC000FD1FE80DF91D8F3510F0208201C0108300
:104FD000FFEF8F1A9F0AAF0ABF0AE1E0F0E0EC0F83
:104FE000FD1FE80DF91D10828FEFC81AD80AE80AD4
:104FF000F80A24CFD701C6018F709927AA27BB27AB
:10500000892B8A2B8B2B51F08FE995E00E94DC31A4
:105010009FEFC91AD90AE90AF90AECCF8CE995E0A1
:105020000E94DC31CE0101960E94EF3188E995E0C3
:105030000E94DC31C501B4016150710981099109F7
:1050400000E220E04AE00E94423084E592E00E94C3
:10505000FB3169960FB6F894DEBF0FBECDBFDF916E
:10506000CF911F910F91FF90EF90DF90CF90BF9065
:10507000AF909F908F907F906F905F904F903F90F8
:105080002F9008958F929F92AF92BF92EF920F93BD
:105090001F9380E090E00E94410F6330710581050D
:1050A0009105F9F4E0919303F0919403808580FDDC
:1050B00018C083E090E00E94410FE62E82E090E06D
:1050C0000E94410F4B015C0181E090E00E94410F82
:1050D000AB01BC019501840180E090E00E94E126D3
:1050E00008C084EB96E00E94EB3186E996E00E94CE
:1050F000EB3161E070E080E090E01F910F91EF9064
:10510000BF90AF909F908F900895CF93DF93EC0165
:10511000CE010E945B3B21969FEF980F9E3F18F4B3
:105120000E94982BF5CFDF91CF9108950F931F9395
:10513000CF93DF938C01E8012196CF3F82E0D8071F
:1051400060F4CE010E945B3B8F3F51F0811103C0A0
:10515000C801029606C08E01EECF8FEF92E001C02B
:10516000CE01DF91CF911F910F910895CF93DF93DF
:10517000EC01CF3F82E0D80738F4CE010E945B3BC0
:105180008F3F29F42196F5CF8FEF9FEF01C0CE011D
:10519000DF91CF910895CF93DF9380E890E00E9454
:1051A000B628EC01CF3F8FEFD80709F18CE10E94C0
:1051B000951280E20E94982BCE010E94852880E201
:1051C0000E94982B8BE70E94982BCE010E94962874
:1051D000EC010E9485288DE70E94982B8BE30E94AA
:1051E000982B0E94CD31CE010E949628D8CFDF9116
:1051F000CF910895BF92CF92DF92EF92FF920F93DB
:105200001F93CF93DF93E82EB92E80E890E00E94A1
:10521000B628EC018F3F2FEF920729F1CE2CDB2C23
:105220008C01F601F1906F01C801FF2069F00E9426
:105230005B3B0F5F1F4F482F50E02F2DFF0C330BB0
:105240004217530771F306C00E945B3B811102C0F5
:10525000CE010BC0CE010E9496280E9496288B3F5B
:10526000F2E09F07A0F28FEF9FEFDF91CF911F91A8
:105270000F91FF90EF90DF90CF90BF9008950E9424
:10528000FA288F3F2FEF920721F00E94F8220C940A
:10529000F8220895CF93DF93EC012196FE01319718
:1052A00084918F3F69F0811106C0FE0184918823AB
:1052B00039F080E202C0803681F30E94982BEDCF56
:1052C000DF91CF91089540E050E0BC0181E00C9463
:1052D000D41CCF93DF93CDB7DEB72D970FB6F894DC
:1052E000DEBF0FBECDBF88E10E948F1C4CE050E0B6
:1052F000BC01CE0101960E94253ACE0101960E9482
:10530000E10D882329F0CE0101960E94632906C091
:105310008DE10E94951283E10E9495122D960FB6A1
:10532000F894DEBF0FBECDBFDF91CF9108958DED14
:1053300096E09093DC068093DB060E94692983E95E
:1053400095E00E941134892B29F083E995E00E94B1
:10535000EF33F5CF0895CF93DF93282F30E0F90195
:10536000EA5FF84F8491F901ED52F94FD491F901B8
:10537000EF50F94FC491CC2391F081110E94CF22BC
:10538000EC2FF0E0EE0FFF1FE753F94FA591B4911A
:10539000EC91ED2381E090E021F480E002C080E018
:1053A00090E0DF91CF91089581E00E946324E09125
:1053B0009303F0919403349780810E94AB29BC0140
:1053C000990F880B990B08951F93CF93DF93282F84
:1053D00030E0F901EA5FF84F8491F901ED52F94F9D
:1053E000D491F901EF50F94FC491CC23C9F0162F95
:1053F00081110E94CF22EC2FF0E0EE0FFF1FE95148
:10540000F94FA591B4918FB7F894111105C09C91F3
:10541000ED2FE095E92302C0EC91ED2BEC938FBFCB
:10542000DF91CF911F910895BF92CF92DF92EF92BB
:10543000FF920F931F93CF93DF9384E00E94632426
:105440002091930330919403F90170970081349671
:10545000C0803496D0803496B080C7E0D0E010E0B1
:1054600087E0E82EF12CC11005C0C7018C1B9D0BF5
:10547000B80102C0B8018C2F02C0759567958A9556
:10548000E2F7617077278B2D0E94E42961E08D2D72
:105490000E94E42960E08D2D0E94E429219718F7ED
:1054A00060E070E0CB01DF91CF911F910F91FF90F1
:1054B000EF90DF90CF90BF90089582E00E94632428
:1054C0008091930390919403FC013897DC01149729
:1054D00060818C910E94E42960E070E0CB01089526
:1054E000CF93DF9390E0FC01ED52F94F2491FC0142
:1054F000EF50F94F8491882361F190E0880F991F54
:10550000FC01E257FA4FC591D491FC01E951F94FE2
:10551000A591B491611109C09FB7F8948881209535
:1055200082238883EC912E230BC0623061F49FB7F5
:10553000F8943881822F809583238883EC912E2BD9
:105540002C939FBF06C08FB7F894E8812E2B288339
:105550008FBFDF91CF91089582E00E9463248091F4
:10556000930390919403FC013897DC0114976081B8
:105570008C910E94702A60E070E0CB010895823027
:10558000910538F0880F991F880F991F059701978B
:10559000F1F708953FB7F8948091D7069091D80617
:1055A000A091D906B091DA0626B5A89B05C02F3F79
:1055B00019F00196A11DB11D3FBFBA2FA92F982F39
:1055C0008827820F911DA11DB11DBC01CD0142E0B4
:1055D000660F771F881F991F4A95D1F708958F92FC
:1055E0009F92AF92BF92CF92DF92EF92FF926B01A8
:1055F0007C010E94CA2A4B015C01C114D104E10460
:10560000F104F1F00E94CA2ADC01CB018819990942
:10561000AA09BB09883E9340A105B10570F321E0BA
:10562000C21AD108E108F10888EE880E83E0981EBE
:10563000A11CB11CC114D104E104F10419F7DDCFA0
:10564000FF90EF90DF90CF90BF90AF909F908F90A2
:10565000089581E00E946324E0919303F091940304
:10566000349760817181828193810E94EF2A60E08A
:1056700070E0CB0108952FB7F8946091D306709134
:10568000D4068091D5069091D6062FBF0895CF926B
:10569000DF92EF92FF92CF93DF9381E00E94632429
:1056A000E0919303F09194033497C080D180E2801D
:1056B000F3808091B606882331F181E0809356070C
:1056C000C091B506D0E08FEFC816D806E806F806F8
:1056D00049F4CC0FDD1FC256D84F8FEF9FEF99834F
:1056E00088831BC00E943B2BCC0FDD1FCC0FDD1F1E
:1056F000C25AD84FC60ED71EE81EF91EC882D982DC
:10570000EA82FB820AC08FEFC816D806E806F806C0
:1057100021F0C701B6010E94EF2A60E070E0CB01E2
:10572000DF91CF91FF90EF90DF90CF900895089593
:10573000FF920F931F93CF93DF93D0915D07D11109
:1057400016C0E091E507F091E607309731F0DF9160
:10575000CF911F910F91FF900994682F83E995E0F5
:10576000DF91CF911F910F91FF900C942934C82F96
:10577000ED2FF0E0EE0FFF1FE154F84F0081118193
:1057800060E08D2F0E94E429C8010E94BF2A49E0F1
:10579000F42EFA94FF2051F06C2F61708D2F0E942F
:1057A000E429C8010E94BF2AC695F3CF61E08D2F7E
:1057B0000E94E429C801880F991FDF91CF911F91A2
:1057C0000F91FF900C94BF2ACF93DF931F92CDB718
:1057D000DEB70E94C112809157078A3249F489834B
:1057E0000E9413110E94C11289810E941A10F3CFE6
:1057F0008F32A9F3853299F30F90DF91CF910895FD
:10580000CF93DF931F92CDB7DEB70E94E42B809138
:1058100057078B3249F489830E9413110E94E42BAD
:1058200089810E941A10F3CF8D32A9F30F90DF9176
:10583000CF910895CF93DF931F92CDB7DEB70E942B
:10584000002C8091570796E7980F923048F489838F
:105850000E9413110E94002C89810E941A10F1CF1E
:105860000F90DF91CF910895CF93DF931F92CDB723
:10587000DEB70E941A2C80915707982F9D7F9C338A
:1058800049F489830E9413110E941A2C89810E9475
:105890001A10F1CF9CE7980F923098F398E7980F81
:1058A000923078F30F90DF91CF910895CF93DF93EB
:1058B0001F92CDB7DEB70E94342C809157078632F5
:1058C00049F489830E9413110E94342C89810E941B
:1058D0001A10F3CF8C37A9F38E3599F30F90DF911F
:1058E000CF910895CF93DF93EC011092BB071092F4
:1058F000BC071092BD071092BE07FE018491882359
:1059000031F1BE018EEA97E00E94133A0097E1F070
:1059100097FD1CC08091BB079091BC07A091BD076B
:10592000B091BE070196A11DB11D8093BB07909356
:10593000BC07A093BD07B093BE07CE010E941C3ADE
:105940000196C80FD91FD9CF81E001C080E0DF9157
:10595000CF9108951F93CF93DF93182FEB0161E050
:105960000E94702A209711F460E004C0CF3FD10557
:1059700039F461E0812FDF91CF911F910C94E429DC
:10598000E12FF0E0EA5FF84FE491E330F9F048F4FA
:10599000E130B9F0E230A1F584B5806284BDC8BDC4
:1059A00034C0E730E9F0E83019F1E43049F580918E
:1059B0008000806280938000D0938B00C0938A0027
:1059C00024C084B5806884BDC7BD1FC0809180009D
:1059D000806880938000D0938900C093880015C0B0
:1059E0008091B00080688093B000C093B3000DC078
:1059F0008091B00080628093B000C093B40005C075
:105A0000C038D1050CF0B5CFAFCFDF91CF911F914A
:105A100008958E3008F08E508770806480937C00EB
:105A200080917A00806480937A0080917A0086FD6C
:105A3000FCCF809178002091790090E0922B08951E
:105A40001F920F920FB60F9211242F933F934F93F3
:105A50005F936F937F938F939F93AF93BF93EF93D6
:105A6000FF938091F8079091F907A091FA07B09100
:105A7000FB07892B8A2B8B2B59F18091F707E0913B
:105A8000F507F091F6079081892780838091F807C8
:105A90009091F907A091FA07B091FB071816190623
:105AA0001A061B060CF03DC08091F8079091F9078B
:105AB000A091FA07B091FB070197A109B109809362
:105AC000F8079093F907A093FA07B093FB0729C052
:105AD00080910801E5E0F7E0E4919FEF90930801E1
