:100000005FC400008EC400008CC400008AC40000DD
:1000100088C4000086C4000084C4000082C40000BC
:1000200080C400000C94630A0C94630A0C94630A65
:1000300078C400000C94C70E74C4000072C40000A1
:1000400070C400006EC400006CC400006AC40000EC
:1000500068C4000066C4000064C400000C94043747
:1000600060C400000C9449130C941F135AC4000080
:1000700058C4000056C4000054C4000052C400001C
:1000800050C400004EC400004CC400004AC400002C
:100090000C94F6120C94CC1244C4000042C400002C
:1000A00040C400003EC400003CC400003AC400004C
:1000B00038C4000036C4000034C4000032C400005C
:1000C00030C400002EC400002CC400002AC400006C
:1000D00028C4000026C4000024C4000022C400007C
:1000E00020C40000080E0D0E120E1C0E260E9F0ED0
:1000F000300E380E400E4A0E540E5E0E6D0E770E08
:100100009F0E810E8B0E950E25182A18351835185E
:10011000351835183A183C183F1808350B35FA349D
:10012000FE34043542350F35133519351D3521356B
:1001300027352B352F354235353539353D35676512
:1001400074677073286661696C293B00636C656134
:10015000726964286F6B293B00636C656172696426
:10016000286661696C293B006C697374696428298D
:100170003B006667736574736372286661696C29F6
:100180003B006667736574736372286F6B293B006D
:100190000102102020080810204010204080020199
:1001A000020108040201010204081020408080407E
:1001B000201008040201800402018040201008047D
:1001C000020108040201010204081020408001021B
:1001D00004081020408000002200250028002B0089
:1001E0002E003100340002010000050108010B015E
:1001F00005050505070508080808020202020A0AA3
:1002000008080404040401010101010101010303C0
:10021000030303030303040707070C0C0C0C0C0C6B
:100220000C0C0202020206060606060606060B0B68
:100230000B0B0B0B0B0B0200000A0B02090C0D0E33
:100240000807030401000000000000000000000097
:10025000000000000000000000000000000000009E
:10026000000000121110000000000000000000005B
:100270000000000000000000000000000063686152
:100280006E67656667286F6B293B004572726F72F7
:1002900020706172616D657465723A205B302D3932
:1002A0005D2B206F722022615B302D395D220D0A9B
:1002B0000009003A0053797374656D20766172739A
:1002C0003A00344444444004404444444444444494
:1002D0004444087747857778787811111111118790
:1002E0008884422222222222222222222222222404
:1002F0004472422222222222222222222222222747
:100300008774868788898C8D93858B848AA6262618
:100310007C7C3D3D213D2B2B2D2D3A3D3E3D3E3EEF
:100320003C3D3C3C2F2F006162730061720061779D
:1003300000626175640062630062656570006272EC
:1003400000627300627700636C7200636F6E737497
:100350007261696E0064656C617900647200647733
:100360000065630065720065770066726565006709
:1003700065746B6579006765746E756D00696E6292
:10038000006973737472006D6170006D6178006D47
:10039000696C6C6973006D696E006F7574620070D2
:1003A000696E6D6F646500706D00706D656D0070D5
:1003B00072696E74660070756C7365696E00726147
:1003C0006E646F6D0073686966746F75740073692D
:1003D000676E00736E6F6F7A65007661726C730082
:1003E000766172726D0000A199A2A7949B8F9C9A6E
:1003F0009D979F9596989EA89061726700626F6F17
:100400007400656C736500666F720066756E637468
:10041000696F6E0068656C70006966006C730070CF
:100420006D70007072696E7400707300726574751F
:10043000726E00726D0072756E0073746F7000736F
:10044000776974636800766172007768696C65002B
:100450000062616E6E6572007072696E7420224374
:100460005353484F434B20666F7220656D6465732C
:100470006B2028656D62656465642D6465736B74BB
:100480006F7029210D0A43532073637269707420C1
:100490006C616E67756167652F6D756C7469706CE2
:1004A000652073686F636B2070726F746F636F6C1D
:1004B0000D0A56657273696F6E3A2076312E302EB2
:1004C000300D0A417574686F723A202863292074D0
:1004D00068616E68736F6E2E726640676D61696CDD
:1004E0002E636F6D2028303937333530353738314A
:1004F00029222C220D0A46726565206D656D3A2011
:10050000222C667265652C22627974657322000064
:100510000000E93053304130282F522E8D310E2EFD
:100520002C2E7C2E6A2B62304B2F33302230E00C85
:100530001230FF2FAD2D442C722B11312220D22EE0
:100540008D30622CAB30FE30EE2FED1F1233DD15F7
:10055000A62F20318D2EC9305B2FD91DD31D566992
:10056000727475616C206D656D6F72793A00687494
:1005700074703A2F2F65636C6F75642E736F646FA0
:100580006E677579656E6C792E636F6D0D0A5069B3
:100590006E733A2064302D32322C61302D3232208D
:1005A000205661726961626C65733A20612D7A2C04
:1005B00020333220696E745F3332742C20666C6F86
:1005C00061740D0A4F70657261746F72733A202BFB
:1005D000202D202A202F20282029203C203C3D208F
:1005E0003E203E3D203D3D20213D203C3C203E3EE6
:1005F0002021205E2026207C202B2B202D2D203A10
:100600003D0D0A436F6D6D616E64733A20000054B6
:100610007970652068657820636F6E74656E743AD2
:10062000200065787065637465642000756E657878
:1006300070656374656420006D697373696E67200B
:1006400000737472696E670020756E646572666C03
:100650006F7700206F766572666C6F77005E43007F
:100660005E42005E5500657870006F70003A7862F7
:10067000792B2D2A2F00656F6600766172006E75EA
:100680006D6265720029007361766564006565704E
:10069000726F6D003A3D22003E2000636861720077
:1006A000737461636B007374617274757000696454
:1006B0000070726F6D7074000D0A46756E63746918
:1006C0006F6E733A006F6F707300617267006675CA
:1006D0006E6374696F6E00637373686F636B00633E
:1006E0006865636B73756D00002020280020200072
:1006F000202020002020200020202000202000207A
:1007000020307800292020002020280020200054BC
:100710006F74616C2062797465733A20002900203F
:10072000746F2000202866726F6D206164647265AA
:1007300073732000454570726F6D20287573696E64
:100740006720617320737461636B207374797065C3
:10075000292073697A653A200046726565206D65C7
:100760006D6F72792073697A653A20005374616302
:100770006B20757365642073697A653A200048655B
:10078000617020757365642073697A653A20004250
:1007900073732073697A653A200052656164206F33
:1007A0006E6C7920646174612073697A65202872A7
:1007B000616D293A20004461746120696E69746535
:1007C000642073697A653A2000436F646520666C23
:1007D0006173682073697A653A200048656170200A
:1007E000656D70747921006D747970653A20302FD1
:1007F00072616D2C312F656570726F6D2C332F66B1
:100800006C61736800706D656D28736164642C6C35
:10081000656E2C6D7479706529000000200023003E
:10082000260029002C002F003200000100000301E7
:100830000601090152756E20616C6C206261636B68
:1008400067726F756E64210053757370656E6420F6
:10085000616C6C206261636B67726F756E642100FE
:100860004F76657220666C6F772C2074696D6520F9
:100870006F7574006765746964286661696C293BEB
:10088000006368616E67656964286661696C293B0D
:10089000006164646E65776964286661696C293BF0
:1008A0000000002100240027002A002D0030003322
:1008B0000001010000040107010A0100A937933774
:1008C00011241FBECFEFD1E2DEBFCDBF00E00CBFD1
:1008D00013E0A0E0B2E0E6E5F7E800E00BBF02C0FD
:1008E00007900D92A031B107D9F72CE0A0E1B3E059
:1008F00001C01D92A53CB207E1F714E0CFE5D4E0BA
:1009000000E006C021970109802FFE010E94353FBB
:10091000CE35D10780E00807A9F70E943D380C9436
:100920009A436ECB80E090E0892B21F00E94EB0C83
:10093000811121C080E090E0892B21F00E94E10C20
:1009400081111CC080E090E0892B41F080E090E0B4
:10095000892B21F00E940000811113C080E090E0FB
:10096000892BA1F080E090E0892B81F00E940000AB
:1009700081110AC008950E940000DCCF0E9400008F
:10098000E1CF0E940000EACF0C940000089520916E
:100990005203309153032817390771F49091510392
:1009A00080915003981741F0E0915103F0E0E05F2F
:1009B000FC4F808190E008958FEF9FEF0895089598
:1009C0001F93CF93DF93DC015C962D913C915D9753
:1009D0002115310539F481E090E013969C938E93B4
:1009E00012973DC05196ED91FC91529750969C9173
:1009F0005097892F80951FB75E964C915E9741FB6B
:100A0000772770F941FD6095F8944081772311F0C4
:100A1000492B01C048234083E9012197F1F748E0C1
:100A2000508160FF02C0592B01C058235083E90157
:100A30002197F1F76695415099F7772321F090813E
:100A40008923808303C08081982B90831FBF5C968D
:100A50008D919C915D970197F1F721E030E0C901FC
:100A6000DF91CF911F91089520915203309153034C
:100A70002817390769F4809150032091510390E0C1
:100A8000805C9F4F821B910960E470E00C94223FD0
:100A900080E090E00895209152033091530328178D
:100AA0003907B9F49091510380915003981789F058
:100AB000E0915103F0E0E05FFC4F80812091510311
:100AC00030E02F5F3F4F2F7333272093510390E087
:100AD00008958FEF9FEF0895089580E090E00895C6
:100AE000BF92CF92DF92EF92FF920F931F93CF931B
:100AF000DF9380E090E00E94C81F611571058105B9
:100B00009105E1F06230710581059105E4F4E09111
:100B1000A306F091A406808580FD1AC00E949B1751
:100B200081E090E00E94C81FC62F8FEF8C0F8530A8
:100B3000A0F064E070E080E090E0ACC061E070E0C4
:100B400080E090E0A7C062E070E080E090E0A2C0AA
:100B500063E070E080E090E09DC08FEE8093A104A0
:100B600091E09093A2048FEF8093A3048093A40458
:100B70008093A5048093A6049093A70447E050E0D7
:100B800061EA74E085E796E00E94FB3360E085E768
:100B900096E016DF65E085E796E012DF6EE085E718
:100BA00096E00EDF65E085E796E00ADF6C2F85E7CB
:100BB00096E006DF60E085E796E002DF6C2F70E0EC
:100BC000675E7F4F85E796E0FBDE1092A1041092EE
:100BD000A2040E94F8366B017C0101EA14E0E801EE
:100BE000BC2EB01A8BE08B15B8F00E94F836DC01F1
:100BF000CB018C199D09AE09BF0986399105A10564
:100C0000B10590F485E796E02FDF892B59F385E74E
:100C100096E041DF8993E4CF8091A1048F3E21F4D7
:100C20008091A204813041F082E791E00E946E152C
:100C300060E070E0CB012EC08091A3048F3FA1F74C
:100C40008091A4048F3F81F78091A5048F3F61F7C5
:100C50008091A6048F3F41F78091A704873021F748
:100C60008091A8048111E0CF8091A9048330E1F63E
:100C70008091AA048111D8CF8091AB0490E0982F85
:100C800088272091AC04820F911D0A9769F682E8AB
:100C900091E0CCCFDF91CF911F910F91FF90EF901A
:100CA000DF90CF90BF900895BF92CF92DF92EF92E6
:100CB000FF920F931F93CF93DF930E949B178FEEAA
:100CC0008093A10491E09093A2048FEF8093A304FA
:100CD0008093A4048093A5048093A6049093A70412
:100CE00047E050E061EA74E085E796E00E94FB335C
:100CF00060E085E796E064DE63E085E796E060DE2D
:100D00006FE085E796E05CDE60E085E796E058DE20
:100D100063E185E796E054DE1092A1041092A204EC
:100D20000E94F8366B017C0101EA14E0E801BC2E58
:100D3000B01A8BE18B15B8F00E94F836DC01CB01BC
:100D40008C199D09AE09BF0986399105A105B10528
:100D500090F485E796E088DE892B59F385E796E0E5
:100D60009ADE8993E4CF8091A1048F3E21F4809193
:100D7000A204813029F08DE792E00E947C1569C0C1
:100D80008091A3048F3FB9F78091A4048F3F99F716
:100D90008091A5048F3F79F78091A6048F3F59F782
:100DA0008091A704873039F78091A8048111E3CF9F
:100DB0008091A9048331F9F68091AA048111DBCFD7
:100DC000E7EAF4E020E030E08191280F311DA4E053
:100DD000EB3BFA07C9F78091BB0490E0982F882776
:100DE0004091BC04840F911D2817390721F6C0914A
:100DF000B20482E3E1EAF4E0DF011D928A95E9F7AB
:100E00006AE672E0CF010E94AE408BE994E0109256
:100E10009B041F92CF932AE732E03F932F939F9337
:100E20008F930E94D1406BE974E081EA94E00E94C4
:100E3000AE406DEC72E081EA94E00E94AE4081EA3F
:100E400094E00E947C150F900F900F900F900F90E0
:100E50000F9060E070E0CB01DF91CF911F910F9177
:100E6000FF90EF90DF90CF90BF90089580E090E0EA
:100E70000E94C81F1616170618061906C4F080919E
:100E80001F06811114C080912006811110C081E0DD
:100E9000809321060E949B170E94921A61E070E0E5
:100EA00020E090E0823009F060E0822F089560E059
:100EB00070E080E090E008950F931F9380911206F8
:100EC000811136C080912006811132C080E090E00F
:100ED0000E94C81F611571058105910549F16230B5
:100EE00071058105910524F5E091A306F091A40612
:100EF000808580FF02C062E01CC00E949B1781E0D9
:100F00008093220681E090E00E94C81F609326062D
:100F100081E090E00E94C81F8B019C0101501109E3
:100F2000210931090F3711052105310530F0E3CFD3
:100F300060E070E080E090E00BC0862F0E94771A9E
:100F400061E070E020E090E0823009F060E0822F04
:100F50001F910F910895EF92FF921F93CF93DF930C
:100F600080E090E00E94C81F1616170618061906A2
:100F70000CF477C08EE091E00E948F3C8F3F09F423
:100F80006CC0C1EAD4E082E3DE011D928A95E9F7E4
:100F90006EE872E0CE010E94AE40FE01019000209A
:100FA000E9F73197E15AF4408FE0E82EFF24F394FB
:100FB00011EF1E0F8EE091E00E948F3C90E08B506D
:100FC0009F4FC12FCE0DD0E08E159F0554F0C70165
:100FD0000E948F3CCF55DB4F8883BFEFEB1AFB0A93
:100FE000E9CFCF55DB4F188281EA94E00E9470155B
:100FF00082E3E1EAF4E0DF011D928A95E9F78EE0F1
:1010000091E00E948F3CC82FD0E0CA50DF4F10E023
:101010008EE091E00E948F3C90E0825F9E4F8C17A3
:101020009D0764F0E12EF12CCE010E948F3CF70168
:10103000EF55FB4F80831F5F2196EACF6DEC72E086
:1010400081EA94E00E94AE4081EA94E00E947C151F
:1010500061E070E080E090E007C08EE391E00E94E4
:101060006E1560E070E0CB01DF91CF911F91FF9092
:10107000EF900895DC0181E09FEE11969C938E9392
:1010800016966C93169718965C934E9317978FEF5E
:1010900012968C93129713968C93139714968C93A5
:1010A000149715968C93159719964034510520F492
:1010B000B901CD010C949E4080E4F90101900D929C
:1010C0008A95E1F708953F924F925F926F927F92D7
:1010D0008F929F92AF92BF92CF92DF92EF92FF9248
:1010E0000F931F93CF93DF93CDB7DEB7CA54D109C7
:1010F0000FB6F894DEBF0FBECDBF80E090E00E9437
:10110000C81F16161706180619060CF4CEC00E9442
:101110009B178DE12B968FAF2B979E01265B3F4F40
:1011200041E050E061E0CE010196A4DFCE010196DE
:101130000E945F18CE0101960E94E71781110DC031
:101140008F81873051F48B8590E0982F88272C85EC
:10115000822B9093520680935106A0905106B09036
:101160005206A114B10429F488E691E00E946E159C
:1011700098C082E3E1EAF4E0DF011D928A95E9F785
:1011800010929B046BE972E0CF010E94AE4086E0B2
:10119000E82EF12C612C712CC12CD12C00E010E038
:1011A0009BE9492E94E0592E2AE7822E22E0922EC6
:1011B00032E3332E0138110508F058C0902F812FEB
:1011C0008701055011090E151F0508F046C00138AA
:1011D000110508F044C010929B04C80181579F4F2D
:1011E0000E948F3C8130A1F5BFEF6B1A7B0A8FEF15
:1011F000C81AD80A1F930F939F928F925F924F92B3
:101200000E94D1406BE974E081EA94E00E94AE4014
:101210000F900F900F900F900F900F90CA14DB0457
:10122000F0F46EEB72E081EA94E00E94AE40AFE031
:101230006A16710469F481EA94E00E947015E1EA8B
:10124000F4E0DF01832D1D928A95E9F7612C712C62
:10125000902F812F0F5F1F4FB6CF092F182FA5E0BA
:10126000EA0EF11CCA14DB0408F4A4CFB1E06B1A37
:1012700071088EE06816710420F481EA94E00E94FF
:10128000701582E3E1EAF4E0DF011D928A95E9F747
:101290006DEC72E0CF010E94AE4081EA94E00E94C2
:1012A0007C1560E070E0CB0104C061E070E080E09C
:1012B00090E0C65BDF4F0FB6F894DEBF0FBECDBF28
:1012C000DF91CF911F910F91FF90EF90DF90CF9022
:1012D000BF90AF909F908F907F906F905F904F9056
:1012E0003F900895CF92DF92EF92FF92CF93DF93DA
:1012F000CDB7DEB7CE54D1090FB6F894DEBF0FBE1E
:10130000CDBF80911206811167C0809120068111A6
:1013100063C080911F0681115FC080E090E00E9451
:10132000C81F611571058105910529F461E070E020
:1013300080E090E054C06230710581059105B4F7FA
:10134000E091A306F091A406808580FD0FC00E9465
:101350009B1781E090E00E94C81F6B017C0180E830
:10136000C816D104E104F10408F705C062E070E09A
:1013700080E090E034C0FE01E65BFF4F85E0DF01D6
:101380001D928A95E9F78CE0808381E08483C28294
:101390009F0145E050E061E0CE0101966BDECE0199
:1013A00001960E945F18CE0101960E94E7178111F5
:1013B0000FC08F81873061F48A85811109C0C60111
:1013C00081579F4F6FEF0E94973C8CE491E002C0E1
:1013D00089E591E00E946E1560E070E0CB01C25B90
:1013E000DF4F0FB6F894DEBF0FBECDBFDF91CF91B8
:1013F000FF90EF90DF90CF9008950F931F93CF93BE
:10140000DF93EC01162F042F1B821A8288EE93E0E3
:10141000A0E0B0E08C839D83AE83BF838AE492E03A
:10142000998388831F8A1E8A198E188E1B8E1A8EA6
:101430001D8E1C8E6E8D6E7F20FB61F96E8F669502
:10144000617081E06827842F0E944A3661E0802F16
:101450000E947936402F50E0FA01E057FE4FE491A8
:10146000E88BFA01E051FE4FE491F0E0EE0FFF1F30
:10147000EA52FE4F859194919A8B898B60E0812F7F
:101480000E9479368E8D81FD04C061E0812F0E941B
:101490004A361C87612F70E0FB01E057FE4FE49154
:1014A000ED87FB01E051FE4FE491F0E0EE0FFF1FEE
:1014B000E65EF74F859194919F878E87DF91CF915C
:1014C0001F910F9108951F920F920FB60F92112442
:1014D0000BB60F922F933F934F935F936F937F932E
:1014E0008F939F93AF93BF93EF93FF93E09152033A
:1014F000F0915303309709F451C0968DA685B785B6
:10150000858591FF04C09C91892329F447C09C9153
:10151000892309F043C0A389B4899C91858980956A
:1015200089238C93868997890197F1F7608D718D56
:10153000A685B785558538E020E0CB010197F1F706
:10154000822F90E095958795282F4C91452309F09F
:101550002068315091F7868D81FD20958091500350
:1015600090E001968F73992730915103381749F015
:10157000A0915003B0E0A05FBC4F2C938093500328
:1015800003C0868D8160868F828D938D0197F1F7E0
:10159000A389B4899C918589892B8C93FF91EF91C4
:1015A000BF91AF919F918F917F916F915F914F917B
:1015B0003F912F910F900BBE0F900FBE0F901F9079
:1015C0001895E0915203F0915303E817F90769F475
:1015D000A389B4899C918589809589238C931092E5
:1015E00053031092520381E0089580E00895CF9351
:1015F000DF93EC018A8D9B8D892BE9F0809152035A
:10160000909153038C179D07B1F0009709F0D9DF33
:101610008E8D8E7F8E8F1092500310925103D09337
:101620005303C0935203EB89FC8990818D89892BE8
:10163000808381E001C080E0DF91CF9108951F9306
:10164000CF93DF93EC019A01AB011B8E1A8E198E9A
:10165000188E1F8A1E8A60E079E08DE390E00E9478
:10166000A53CF9012430310518F0C901039702C0E7
:1016700081E090E09D8F8C8F8C8516EF180F1430D1
:1016800048F09EEC980F943028F092EC980F983028
:1016900008F07FC0B901769567956431710518F03F
:1016A0006351710902C061E070E07F8B6E8B3697E9
:1016B00020F0B9016550710902C061E070E0798FD6
:1016C000688FB901660F771F260F371F369527954C
:1016D000369527952D30310518F02C50310902C070
:1016E00021E030E03B8F2A8F143060F09EEC980FA1
:1016F000943040F092EC980F983008F44FC0A0E07E
:10170000B0E04EC0A8E6B0E0E8E6F0E0908114302A
:1017100018F08E53883010F081E001C084E0892BEE
:101720008C938C8596EF980F943058F02EEC280F00
:10173000243038F022EC280F283030F020E030E060
:1017400005C02BE630E002C02DE630E03C8B2B8B51
:10175000943010F486500BC0823379F0833379F0E3
:10176000843379F092EC980F983068F4892F91E0E7
:1017700001C0990F8A95EAF707C098E005C094E088
:1017800003C092E001C091E09D8B8C8D9D8D0197EF
:10179000F1F7CE01DF91CF911F9129CFA8E6B0E0FC
:1017A000983008F4B1CFE0E0F0E0B0CF0F931F9392
:1017B000CF93DF93CDB7DEB7CF54D1090FB6F894EE
:1017C000DEBF0FBECDBF81E0809320060E94491985
:1017D000811188C081E00E941519811183C086E0C3
:1017E000E0E1F2E0DE01A65BBF4F01900D928A9529
:1017F000E1F79E01265B3F4F46E050E061E0CE01FD
:10180000019638DCCE0101960E945F18CE01019648
:101810000E94E717811166C08F81873009F062C08E
:101820000B8510E0102F00278C85082B10934E0697
:1018300000934D068D8590E0982F88272E85822B6A
:101840009093500680934F068A8581114BC082E0A9
:101850008093200682E3E1EAF4E0DF011D928A959D
:10186000E9F763EA72E0CF010E94AE408BE994E0B1
:1018700010929B0410929C0410929D0410929E045E
:1018800010929F041092A00411271F930F932AE730
:1018900032E03F932F939F938F930E94D1406BE947
:1018A00074E081EA94E00E94AE406FEA72E081EA5F
:1018B00094E00E94AE4081EA94E00E947C1501E031
:1018C00010E020E030E0A90168EB7BE080E090E0F0
:1018D0000E94B9170F900F900F900F900F900F90DC
:1018E00082E001C083E0C15BDF4F0FB6F894DEBF3A
:1018F0000FBECDBFDF91CF911F910F9108950F9330
:101900001F9306E010E028EC30E040E050E068EC87
:1019100070E080E090E00E94B9171F910F91089548
:101920000F931F9302E010E020E931E040E050E027
:1019300060E971E080E090E00E94B9171F910F917B
:101940000895EEDF80E090E00E94C81F161617068B
:1019500018061906BCF080911206811113C08091FF
:101960001F0681110FC081E0809323060E949B1700
:101970001DDF61E070E020E090E0823009F060E07F
:10198000822F089560E070E080E090E00895FC010F
:10199000A089B1898C91A689B78982FD0FC09C91DD
:1019A000818D8F5F8F73228D821749F0218DDF012A
:1019B000A20FB11D5D969C93818F08958C9108951F
:1019C000089583ED94E00E94573421E0892B09F4B7
:1019D00020E0822F089580E795E00E94573421E0AF
:1019E000892B09F420E0822F0895FF920F931F9313
:1019F000CF93DF93682FD0910002D130B1F4E09102
:101A0000E303F091E403309731F0DF91CF911F9120
:101A10000F91FF901994E0917005F091710501907C
:101A2000F081E02D80E795E00BC0D23179F4E091B0
:101A3000D304F091D4040190F081E02D83ED94E083
:101A4000DF91CF911F910F91FF901994C82FED2F27
:101A5000F0E0EE0FFF1FEB51FC4F0081118160E0C1
:101A60008D2F0E944A36C8010E94B53649E0F42EF7
:101A7000FA94FF2051F06C2F61708D2F0E944A362E
:101A8000C8010E94B536C695F3CF61E08D2F0E9444
:101A90004A36C801880F991FDF91CF911F910F918E
:101AA000FF900C94B536CF93DF931F92CDB7DEB77E
:101AB0000E944D248091540396E7980F923048F489
:101AC00089830E9490210E944D2489810E949B203D
:101AD000F1CF0F90DF91CF910895CF93DF931F92B5
:101AE000CDB7DEB7E0DF80915403982F9D7F9C3304
:101AF00041F489830E949021D6DF89810E949B2036
:101B0000F2CF9CE7980F9230A0F398E7980F9230AD
:101B100080F30F90DF91CF910895CF93DF931F92C1
:101B2000CDB7DEB7DADF80915403863241F4898382
:101B30000E949021D2DF89810E949B20F4CF8C37B4
:101B4000B1F38E35A1F30F90DF91CF910895CF932C
:101B5000DF93EC011092DF031092E0031092E10397
:101B60001092E203FE018491882331F1BE0182EDDF
:101B700093E00E946E3C0097E1F097FD1CC08091BD
:101B8000DF039091E003A091E103B091E20301969D
:101B9000A11DB11D8093DF039093E003A093E103A7
:101BA000B093E203CE010E94773C0196C80FD91F83
:101BB000D9CF81E001C080E0DF91CF9108951F93DC
:101BC000CF93DF93182FEB0161E00E9479362097C5
:101BD00011F460E004C0CF3FD10539F461E0812FFA
:101BE000DF91CF911F910C944A36E12FF0E0E95C30
:101BF000FD4FE4914E2F50E0FA013197E231F105AB
:101C000008F09DC08827EE58FF4F8F4F0C94353F4A
:101C100084B5806884BDC7BD97C084B5806284BD2B
:101C2000C8BD92C080918000806880938000D0936E
:101C30008900C093880088C0809180008062809372
:101C40008000D0938B00C0938A007EC0809180007A
:101C5000886080938000D0938D00C0938C0074C006
:101C60008091B00080688093B000C093B3006CC0D6
:101C70008091B00080628093B000C093B40064C0D3
:101C800080919000806880939000D0939900C093D9
:101C900098005AC080919000806280939000D09309
:101CA0009B00C0939A0050C0809190008860809300
:101CB0009000D0939D00C0939C0046C08091A000EE
:101CC00080688093A0008091A0008F7B8093A0000B
:101CD000D093A900C093A80037C08091A000806273
:101CE0008093A000D093AB00C093AA002DC0809138
:101CF000A00088608093A000D093AD00C093AC009A
:101D000023C080912001806880932001D093290115
:101D1000C093280119C08091200180628093200126
:101D2000D0932B01C0932A010FC0809120018860BD
:101D300080932001D0932D01C0932C0105C0C038A1
:101D4000D1050CF04BCF45CFDF91CF911F91089576
:101D5000863308F0865390917B00282F2870977F58
:101D6000922B90937B008770806480937C0080919D
:101D70007A00806480937A0080917A0086FDFCCF9F
:101D8000809178002091790090E0922B08951F9225
:101D90000F920FB60F9211240BB60F922F933F9311
:101DA0004F935F936F937F938F939F93AF93BF9363
:101DB000EF93FF938091970490919804A0919904D8
:101DC000B0919A04892B8A2B8B2B59F18091960420
:101DD000E0919404F091950490818927808380910B
:101DE000970490919804A0919904B0919A041816C0
:101DF00019061A061B060CF056C0809197049091A4
:101E00009804A0919904B0919A040197A109B1098D
:101E10008093970490939804A0939904B0939A04A4
:101E200042C080910102E6E3F2E0E4919FEF9093DB
:101E30000102E230C9F050F4EE2399F0E13081F56F
:101E400090916F009D7F90936F002AC0E43019F14C
:101E5000E0F0E53029F5909173009D7F9093730039
:101E60001FC010926E001CC0909170009D7F9093D7
:101E7000700091E09093B0009091B100987F9460D1
:101E80009093B1001092B3000BC0909171009D7FB0
:101E90009093710005C0909172009D7F90937200A5
:101EA00060E00E944A36FF91EF91BF91AF919F9100
:101EB0008F917F916F915F914F913F912F910F90F3
:101EC0000BBE0F900FBE0F901F9018953F924F9230
:101ED0005F926F927F928F929F92AF92BF92CF92BA
:101EE000DF92EF92FF920F931F93CF93DF9300D077
:101EF0001F92CDB7DEB729013A01909101029817E0
:101F000021F09F3F09F032C304C0E6E3F2E03490D1
:101F100004C180930102E6E3F2E0E491EF3F09F4AB
:101F200025C3E23009F480C074F5EE2309F45BC0E8
:101F3000E13009F0F1C01092800010928100909180
:101F400081009860909381009091810091609093BE
:101F50008100282F30E0F901E051FE4FE491F0E0DC
:101F6000EE0FFF1FEA52FE4F4591549150937C04AF
:101F700040937B04F901E057FE4FE491E0937A042B
:101F800033243394CCC0E43009F49EC00CF474C004
:101F9000E53009F0C1C0109220011092210190910A
:101FA000210198609093210190912101916090937B
:101FB0002101482F50E0FA01E051FE4FE491F0E09A
:101FC000EE0FFF1FEA52FE4F2591349130937304B8
:101FD00020937204FA01E057FE4FE491E0937104FC
:101FE000B5E03B2E9CC014BC15BC94B5926094BD6A
:101FF00095B5916095BD282F30E0F901E051FE4F75
:10200000E491F0E0EE0FFF1FEA52FE4F459154912C
:1020100050937F0440937E04F901E057FE4FE49112
:10202000E0937D04312C7BC01092B0001092B1007F
:102030009091B00092609093B0009091B100916047
:102040009093B100282F30E0F901E051FE4FE49168
:10205000F0E0EE0FFF1FEA52FE4F4591549150936E
:10206000950440939404F901E057FE4FE491E09306
:10207000960452E0352E53C01092900010929100B9
:10208000909191009860909391009091910091604F
:1020900090939100282F30E0F901E051FE4FE49138
:1020A000F0E0EE0FFF1FEA52FE4F4591549150931E
:1020B000790440937804F901E057FE4FE491E093EE
:1020C000770423E0322E2BC01092A0001092A100C2
:1020D0009091A10098609093A1009091A1009160CF
:1020E0009093A100282F30E0F901E051FE4FE491D8
:1020F000F0E0EE0FFF1FEA52FE4F459154915093CE
:10210000760440937504F901E057FE4FE491E093A3
:10211000740404E0302E03C03E2E37FC27C28B012E
:1021200061E00E9479364801A12CB12C832D8D7F6E
:1021300009F0BBC060E072E18AE790E0A50194017C
:102140000E94A53C29833A834B835C8369017A0111
:1021500021E0C21AD108E108F1088FEFC816D104B6
:10216000E104F10409F008F44CC060E472E48FE08B
:1021700090E0A50194010E94A53C69017A0191E0DB
:10218000C91AD108E108F108E2E03E1220C0FFEFD1
:10219000CF16D104E104F10409F008F4E5C160E9C7
:1021A00070ED83E090E0A50194010E94A53C6901D7
:1021B0007A0181E0C81AD108E108F1089FEFC91639
:1021C000D104E104F10409F0D0F583E067C0EFEF3A
:1021D000CE16D104E104F104B1F0A8F068E478EE81
:1021E00081E090E0A50194010E94A53C69017A017B
:1021F000F1E0CF1AD108E108F108332009F45AC1FF
:10220000AAC181E001C082E03320A1F047C08981EA
:102210009A81AB81BC812AE0B595A7959795879562
:102220002A95D1F76C017D01F1E0CF1AD108E108C0
:10223000F10885E095B5987F892B85BDA6C068E437
:1022400078EE81E090E0A50194010E94A53C69012F
:102250007A0181E0C81AD108E108F1089FEFC91698
:10226000D104E104F10409F008F422C164E274EF3E
:1022700080E090E0A50194010E94A53C69017A01EB
:1022800081E0C81AD108E108F1089FEFC916D1040E
:10229000E104F10411F008F02FC185E09091B10044
:1022A000987F892B8093B10070C060E072E18AE76B
:1022B00090E0A50194010E94A53C69017A01F1E03A
:1022C000CF1AD108E108F108C114D10421E0E206D7
:1022D000F10488F068E478EE81E090E0A5019401D3
:1022E0000E94A53C69017A0181E0C81AD108E10881
:1022F000F10883E001C081E091E0391210C09091B3
:102300008100987F892B80938100411451046104DE
:10231000710409F03FC02FEF3FEFA90171C0E3E066
:102320003E120FC090919100987F892B809391006D
:10233000411451046104710469F52FEF3FEFA901C5
:1023400081C0F4E03F120FC09091A100987F892BCB
:102350008093A1004114510461047104D9F42FEF5A
:102360003FEFA90181C025E032120FC090912101F9
:10237000987F892B809321014114510461047104D9
:1023800049F42FEF3FEFA90181C0411451046104CA
:10239000710471F0D801AA0FBB1FA30192010E9422
:1023A000C13C28EE33E040E050E00E94CB3C03C04B
:1023B0002FEF3FEFA90182E03816A1F1831534F029
:1023C000332079F091E03916D9F0D0C0E4E03E1620
:1023D00009F44AC03E16B4F1F5E03F1609F456C0C0
:1023E000C5C0C7BC209390043093910440939204DD
:1023F0005093930480916E00826080936E00B6C00B
:10240000D0928900C092880020938C0430938D0470
:1024100040938E0450938F0480916F00826080936C
:102420006F00A4C0C092B300209397043093980427
:102430004093990450939A04809170008260809335
:10244000700094C0D0929900C092980020938804A4
:102450003093890440938A0450938B0480917100D7
:1024600082608093710082C0D092A900C092A800BF
:10247000209384043093850440938604509387040A
:102480008091720082608093720070C0D0922901A6
:10249000C0922801209380043093810440938204E9
:1024A00050938304809173008260809373005EC0B8
:1024B00084E0F4CE2FEFC216D104E104F104D1F090
:1024C000C8F062E17AE780E090E0A50194010E9403
:1024D000A53C69017A01E1E0CE1AD108E108F108D2
:1024E000FFEFCF16D104E104F10411F008F08FCE14
:1024F00084E0A0CE83E09ECE62E17AE780E090E0C7
:10250000A50194010E94A53C69017A0181E0C81AE5
:10251000D108E108F1089FEFC916D104E104F104E4
:10252000C1F0B8F089819A81AB81BC814AE0B59550
:10253000A795979587954A95D1F76C017D01E1E0C4
:10254000CE1AD108E108F108332009F472CE87E0F1
:10255000A5CE86E059CEEFEFCE16D104E104F1040A
:1025600009F050F684E050CE82E098CE0F900F90A4
:102570000F900F90DF91CF911F910F91FF90EF90EF
:10258000DF90CF90BF90AF909F908F907F906F9093
:102590005F904F903F9008951F920F920FB60F9249
:1025A00011240BB60F922F933F934F935F936F932A
:1025B0007F938F939F93AF93BF93EF93FF9383ED9D
:1025C00094E00E946534FF91EF91BF91AF919F918C
:1025D0008F917F916F915F914F913F912F910F90CC
:1025E0000BBE0F900FBE0F901F9018951F920F9269
:1025F0000FB60F9211240BB60F922F933F934F9368
:102600005F936F937F938F939F93AF93BF93EF935A
:10261000FF9383ED94E0BBD9FF91EF91BF91AF9110
:102620009F918F917F916F915F914F913F912F91EA
:102630000F900BBE0F900FBE0F901F9018951F921A
:102640000F920FB60F9211240BB60F922F933F9358
:102650004F935F936F937F938F939F93AF93BF93AA
:10266000EF93FF9380E795E00E946534FF91EF912F
:10267000BF91AF919F918F917F916F915F914F919A
:102680003F912F910F900BBE0F900FBE0F901F9098
:1026900018951F920F920FB60F9211240BB60F923E
:1026A0002F933F934F935F936F937F938F939F935A
:1026B000AF93BF93EF93FF9380E795E068D9FF91C5
:1026C000EF91BF91AF919F918F917F916F915F91AA
:1026D0004F913F912F910F900BBE0F900FBE0F9017
:1026E0001F901895CF92DF92EF92FF92CF93DF93D6
:1026F000EAEAF3E020E030E0C190D190E190F1907F
:10270000CF20CE20CD20C09431F5E901CC0FDD1FC4
:10271000CC0FDD1FFE01E655FC4F092E000CAA0B65
:10272000BB0B80839183A283B383FE01EE57FC4FE2
:1027300040835183628373830E94F836C65ADC4F0C
:10274000688379838A839B83DF91CF91FF90EF9099
:10275000DF90CF9008952F5F3F4F2A30310561F60B
:1027600087E10E94A43148E250E06FEF70E08AEA0E
:1027700093E00C94A7404F925F926F927F928F925A
:102780009F92AF92BF92CF92DF92EF92FF920F9300
:10279000CF93DF932B013C01D22FC42ED12CE12CFF
:1027A000F12C6C157D058E059F05A0F09B01AC01F9
:1027B000C1E0CA01B901A70196010E94CB3CCF5FDD
:1027C0002C153D054E055F05A0F78C2E912CA12CF4
:1027D000B12C04C0812C912C54018394C82DD111AB
:1027E00017C08A9489288A288B28D9F480E3840D1D
:1027F000DF91CF910F91FF90EF90DF90CF90BF903E
:10280000AF909F908F907F906F905F904F90EDC8AA
:102810008D1638F7D819DD2321F3802FE6D8D15053
:10282000FACFEFEFEC0F812C912C54018394E150FF
:1028300020F1A5019401C701B6010E94133F4B018D
:102840005C01F5CFC301B201A50194010E94CB3C0C
:10285000CA01B901A70196010E94CB3CD62FC50140
:10286000B401A70196010E94CB3C49015A01DA301C
:1028700038F480E38D0FB9D8C150C111E3CF02C045
:1028800087E3F8CFDF91CF910F91FF90EF90DF902A
:10289000CF90BF90AF909F908F907F906F905F9000
:1028A0004F9008950F9300E020E04AE064DF0F911D
:1028B00008954F925F926F927F928F929F92AF9204
:1028C000BF92CF92DF92EF92FF920F93CF93DF935D
:1028D0006B017C01E1E081E08E0F8A3011F0E82F7E
:1028E000FACF412C512C32014394E15048F0AAE038
:1028F000B0E0A30192010E94C13C2B013C01F5CF45
:1029000020E030E0A901C701B6010E94613D87FFC8
:1029100006C08DE26AD8F7FAF094F7F8F094C70190
:10292000B6010E94CD3D4B015C0197FF09C08DE2CD
:102930005CD866277727CB01681979098A099B0932
:1029400000E020E04AE017DFC301B2010E94FE3D33
:102950002B013C01C501B4010E94003E9B01AC016A
:10296000C701B6010E94FC3C9B01AC01C301B2014E
:102970000E94B03E0E94D23D6B017C01672B682B08
:10298000692B09F454C0D0E03AE0832E912CA12C9D
:10299000B12CC701B601A50194010E94CB3C672B65
:1029A000682B692B29F469017A01DF5FDB3089F735
:1029B0008AE0C816D104E104F104B0F0C701B60101
:1029C000C1E02AE0822E912CA12CB12CA50194010A
:1029D0000E94CB3CCA01B901CF5F2A3031054105C5
:1029E0005105A0F78C2F04C081E090E0A0E0B0E09A
:1029F000C9E0CD1BC81B8EE20E94F50CCC2329F048
:102A000080E30E94F50CC150F9CFC701B601DF91F8
:102A1000CF910F91FF90EF90DF90CF90BF90AF904C
:102A20009F908F907F906F905F904F903BCFDF9102
:102A3000CF910F91FF90EF90DF90CF90BF90AF902C
:102A40009F908F907F906F905F904F900895CF925E
:102A5000DF92EF92FF920F93CF93DF931F92CDB748
:102A6000DEB76B017C01022F97FF0EC08DE2498318
:102A70000E94F50CF094E094D094C094C11CD11C39
:102A8000E11CF11C49814150242F4AE0C701B601E5
:102A900072DE0F90DF91CF910F91FF90EF90DF905A
:102AA000CF9008958DE00E94F50C8AE00C94F50C0F
:102AB0000F9300E020E04AE05EDE0F91F3CFCF936A
:102AC000DF93FC018491EF012196882321F00E947D
:102AD000F50CFE01F7CFDF91CF910895F0DFE2CF43
:102AE000CF93DF93EC018991882319F00E94F50CB4
:102AF000FACFDF91CF910895F3DFD4CF0F931F93D7
:102B0000CF93DF93EC019A01AB018634910518F065
:102B10008EE00E94A6318130910529F4BA01A90105
:102B200080E795E006C0429749F4BA01A90183ED18
:102B300094E09AD160E070E0CB011FC060E472E4E1
:102B40008FE090E00E94A53C890103501109FE012D
:102B5000EE0FFF1FEB51FC4F1183008361E08C2FC0
:102B60000E94793661E08C2F0E944A36C8010E948B
:102B7000B536B801110F880B990BDF91CF911F91DA
:102B80000F910895863418F08EE00E94A63180934C
:102B90000002813089F0823179F090E0FC01EE0F83
:102BA000FF1FEB51FC4F20813181232B29F440E89A
:102BB00055E260E070E0A2CF08954F925F926F926D
:102BC0007F92AF92BF92CF92DF92EF92FF920F93DC
:102BD000CF9380E090E00E94C81F161617061806D3
:102BE00019062CF05FDF60E070E0CB01F8C081E0F7
:102BF00090E00E94C81F5B01C2E0F501808188233C
:102C000009F4E6C0853209F0D9C0F501818180332D
:102C100029F0FFEFAF1ABF0A00E204C082E0A80E5D
:102C2000B11C00E3F50180818A3221F0C12CD12C46
:102C300076010EC0772473947C0E8C2F90E00E9456
:102C4000C81F6B017C01FFEFAF1ABF0AC72D1CC064
:102C50005F016191062E000C770B3B0180E3681A3F
:102C600071088AE06816710478F4AAE0B0E0A70160
:102C700096010E94C13C6301770CEE08FF08C60E66
:102C8000D71EE81EF91EE4CFF5018081843649F194
:102C900084F4853209F474C024F4833209F472C0D8
:102CA00083C0823671F1833609F07EC06C2E712CA0
:102CB00051C0833769F14CF4863609F075C08C2F0A
:102CC00090E00E94C81FF5DD77C0853791F0883706
:102CD00009F06AC08C2F90E00E94C81F2C2D40E1A3
:102CE0000EC08C2F90E00E94C81F202F4C2DAFDE0D
:102CF00063C08C2F90E00E94C81F2C2D4AE03BDD62
:102D00005BC08C2F90E00E94C81F2C2D42E0F7CFB3
:102D10008C2F90E00E94C81F2B013C01FB01019009
:102D20000020E9F73197E61BF70BCE1ADF0AE1081E
:102D3000F1081C141D041E041F044CF480E20E94C0
:102D4000F50CF1E0CF1AD108E108F108F2CFC20189
:102D5000C7DE32C0C3010E94C81F862F0E94F50C37
:102D600081E0C81AD108E108F108D701C60101962F
:102D7000A11DB11D181619061A061B065CF31CC00E
:102D800085E217C08C2F90E00E94C81F062FC11447
:102D9000D104E104F10429F0B701A601802F90E0ED
:102DA000ADDE802FEFDE08C085E20E94F50CF50154
:102DB00080810E94F50C21CFCF5F06C08A3011F4CC
:102DC00071DE02C00E94F50CFFEFAF1ABF0A15CFEB
:102DD00081E0809300026C2F70E080E090E0CF9162
:102DE0000F91FF90EF90DF90CF90BF90AF907F90CA
:102DF0006F905F904F900895CF93DF931F92CDB760
:102E0000DEB70E948D0D809154039AE7980F92309F
:102E100048F489830E9490210E948D0D89810E942F
:102E20009B20F1CF81E8809359030E945320609347
:102E300055037093560380935703909358030F9054
:102E4000DF91CF910895D8DF80915903813819F02F
:102E50008EE00E94AE3160915503709156038091CF
:102E60005703909158030895CF92DF92EF92FF920B
:102E70000F931F93CF93DF93EC016A017B01E889E5
:102E8000F98982E080834115514E61057105B1F0E9
:102E900060E079E08DE390E0A70196010E94CB3CD1
:102EA00089019A01015011092109310936952795A7
:102EB00017950795980101151041A8F0E889F9893F
:102EC000108260E874E88EE190E0A70196010E940C
:102ED000CB3CDA01C9010197A109B109B695A795C3
:102EE000979587959C01EC85FD853083EE85FF8560
:102EF0002083188EEC89FD8986E08083EA89FB892E
:102F0000808180618083EA89FB89808188608083F9
:102F1000EA89FB89808180688083EA89FB898081D6
:102F20008F7D8083DF91CF911F910F91FF90EF9064
:102F3000DF90CF90089568EE73E080E090E00E940B
:102F4000C0368091730690917406009729F040E096
:102F500051EE60E070E088DF80917106909172061A
:102F6000009731F040E051EE60E070E00C941F0BF0
:102F700008958F929F92AF92BF92CF92DF92EF927D
:102F8000FF920F931F934B015C016B017C01C20EFA
:102F9000D31EE41EF51E0115110571F0A501940163
:102FA00068EE73E087E00E94660FC701B6010E94D9
:102FB000C03601501109EFCF1F910F91FF90EF9094
:102FC000DF90CF90BF90AF909F908F900895EF9239
:102FD000FF920F931F93CF93DF93EC01E12CF12C21
:102FE00000E010E080916F0690917006DC01ED9199
:102FF000FC910084F185E02D1995892B81F461E025
:1030000070E080E090E00E94C0362FEFE21AF20AF2
:1030100048EEE41643E0F40628F38FEF49C08091B0
:103020006F0690917006DC01ED91FC910284F385AE
:10303000E02D1995982F0930110548F5F8018827DA
:10304000EC57FF4F8F4F0C94353F9F3E59F6188237
:10305000998328C028813981A901492BCA01998304
:10306000888381309F4EF1F020C0FE01E00FF11FF8
:10307000908318C09E8316C01F82988713C02F812B
:103080003885D901A92BCD0198878F830BC0FE010C
:10309000E00FF11F80832F813885C80108978217C0
:1030A000930729F00F5F1F4F9DCF8EEF01C080E087
:1030B000DF91CF911F910F91FF90EF900895DF92D4
:1030C000EF92FF920F931F93CF93DF93EC018091C8
:1030D0006F0690917006DC01ED91FC916981019081
:1030E000F081E02D199580916F0690917006DC01BA
:1030F000ED91FC910190F081E02D6881199580910E
:103100006F0690917006DC01ED91FC910190F081C9
:10311000E02D6A81199580916F0690917006DC010F
:10312000ED91FC910190F081E02D6B8119958091DA
:103130006F0690917006DC01ED91FC910190F08199
:10314000E02D6C81199580916F0690917006DC01DD
:10315000ED91FC910190F081E02D6D8119958091A8
:103160006F0690917006DC01ED91FC910190F08169
:10317000E02D6E811995EF80F884B2E0EB0EF11C22
:1031800080916F06909170060F2D1127DC01ED9153
:10319000FC910190F081E02D602F199580916F06D0
:1031A00090917006DC01ED91FC910190F081E02D91
:1031B0006E2D19950E0D111D8E81080F111DD12C2C
:1031C000ED2CF12C2F81388580916F06909170063F
:1031D000DC01ED91FC91E216F30678F4EC0EFD1E95
:1031E0000190F081E02DD70119966C911995F701A6
:1031F0008185080F111DD394E3CF0190F081E02D5C
:10320000612F199580916F0690917006DC01ED9108
:10321000FC910190F081E02D602FDF91CF911F9103
:103220000F91FF90EF90DF901994CF93DF93CDB77C
:10323000DEB7CB54D1090FB6F894DEBF0FBECDBFB9
:1032400092E02B969FAF2B972C968FAF2C979E01D9
:10325000265B3F4F42E050E061E0CE0101960E94C4
:103260003A08CE0101962BDFCE010196B0DE811126
:1032700005C08F81873011F48A8501C081E0C55B6C
:10328000DF4F0FB6F894DEBF0FBECDBFDF91CF91F9
:103290000895CF93DF93CDB7DEB7CA54D1090FB6E7
:1032A000F894DEBF0FBECDBF81E02B968FAF2B977A
:1032B0009E01265B3F4F41E050E061E0CE01019668
:1032C0000E943A08CE010196FADECE0101967FDE19
:1032D000811105C08F81873011F48A8501C081E09A
:1032E000C65BDF4F0FB6F894DEBF0FBECDBFDF91D8
:1032F000CF910895DF92EF92FF920F931F93CF9398
:10330000DF93CDB7DEB7CD54D1090FB6F894DEBF49
:103310000FBECDBFD82E8091250681110BC008E0CD
:1033200010E024E130E040E050E064E170E080E053
:1033300090E01FDE809124068111C7C0AADF182FFC
:10334000823009F0C2C081E0809325060E94900C73
:1033500085E0E82EF12C9DDF811104C01092250636
:1033600091E001C090E081E0E81AF10819F0913095
:1033700021F0F1CF913009F09CC081E056DF81113E
:10338000A6C081E080932406FF24F3949091240644
:10339000913009F090C08091250681110BC008E0A2
:1033A00010E024E130E040E050E064E170E080E0D3
:1033B00090E0DFDD6EDF823029F491E09093250606
:1033C0008093240680912406823009F076C0109202
:1033D00024060E94900C0CE010E05BDF811104C019
:1033E0001092250693E0F92E0150110983E039F07F
:1033F000F812F3CF82E019DF811161C004C0F81622
:10340000C9F315E064C085E02B968FAF2B979E0122
:10341000265B3F4F41E050E061E0CE0101960E9403
:103420003A08CE0101964BDECE010196D0DD811126
:1034300048C08F81873009F044C08A85811141C01E
:103440002E961CAE1DAE1EAE1FAE2E9786E02B969E
:103450008FAF2B9781E02C968FAF2C972E96DFAEF7
:103460002E979E01265B3F4F44E050E061E0CE0185
:1034700001960E943A08CE01019621DECE01019606
:10348000A6DD811120C08F818730E9F49A859111E2
:103490001AC0109225061092240601E010E020E0E8
:1034A00030E0A90168EB7BE080E090E062DD19E0AC
:1034B0000EC011E00CC013E00AC014E008C016E012
:1034C00006C017E004C018E002C0F12C5FCF812FC6
:1034D000C35BDF4F0FB6F894DEBF0FBECDBFDF91E9
:1034E000CF911F910F91FF90EF90DF900895CF93B0
:1034F000C82F81E080931F068C2FFCDE893079F481
:103500008C2F90E061E081579F4F0E94973C82E0B2
:1035100080931F068DE792E0E1DA82E001C085E04A
:10352000CF910895DF92EF92FF920F931F93CF9365
:10353000DF9381E080931206C0E9D0E0DC2E81E7C2
:10354000D80E8E010F581109CF30A1E0DA0709F427
:1035500050C07E01CE010E948F3C21968F3F71F7B3
:103560008D2DC8DE893011F084E04DC01092250603
:103570001092240682E08093120661E0C7010E9447
:10358000973CE1EAF4E01192B4E0E33DFB07D9F7A0
:1035900082E3E1EAF4E0DF011D928A95E9F761EB4D
:1035A00072E0CF010E94AE408BE994E010929B0440
:1035B0001F930F932AE732E03F932F939F938F93AC
:1035C0000E94D1406BE974E081EA94E00E94AE4031
:1035D0006DEC72E081EA94E00E94AE4081EA94E0F2
:1035E0008BDA0F900F900F900F900F900F9082E05A
:1035F0000AC080EC92E080DA109225061092240630
:103600001092120683E0DF91CF911F910F91FF90EE
:10361000EF90DF9008950F931F93CF93C82F809161
:103620009B06811113C00E94F836DC01CB01805348
:10363000984FAF4FBF4F8093970690939806A093F3
:103640009906B0939A0681E080939B06C11119C038
:1036500081E08093270610929606109295060E94AC
:10366000F836DC01CB018053984FAF4FBF4F8093AA
:10367000970690939806A0939906B0939A06109295
:1036800094068EE296E00E94F70A8EE296E00E948F
:103690003405892B09F400C18EE296E00E944B05A7
:1036A000682F8D3011F08A3039F4109296061092FE
:1036B000950610929406FFC080919606811105C070
:1036C000643209F0E9C081E0CEC0813039F467345A
:1036D00011F482E0C8C010929606DEC0823021F458
:1036E0006035C9F783E0BFC0833021F4673499F7B0
:1036F00084E0B9C0843021F4673469F785E0B3C051
:10370000853021F4613439F786E0ADC0863021F48C
:103710006C3209F787E0A7C0873051F46C3209F0AA
:1037200083C080919406813009F0B6C088E022C041
:10373000883051F46C3209F077C080919406813062
:1037400009F0AAC089E085C0893021F56C3261F0AA
:103750006E3409F469C0633509F466C010929606A8
:103760001092950681E0AAC080919406813009F0FC
:1037700093C08AE0809396068091950690E06CE273
:10378000815F9E4F0E94973C809195068F5F80934A
:10379000950661C08A3051F46C3209F045C08091C1
:1037A0009406813009F078C08BE053C08B3021F54E
:1037B0006C3251F06735C1F16534B1F11092960663
:1037C0001092950683E07AC080919406813009F0CA
:1037D00063C08CE0809396061092940680919506C3
:1037E00090E06CE2815F9E4F0E94973C809195062D
:1037F0008F5F8093950650C08C3029F46C3209F0AD
:103800004BC08DE030C08D3029F46C3209F044C0DB
:103810008EE029C08E3021F46C32F1F58FE023C0A8
:103820008F30E1F46C3281F08091950690E0815FF9
:103830009E4F0E94973C809195068F5F80939506DE
:1038400081E08093940628C080919406813021F510
:1038500080E180939606109294061EC0803159F440
:103860006D3421F481E18093960616C0109296067D
:103870001092950611C0813179F46091950689EF17
:10388000860F883F48F48EE091E00E94973C1092AA
:103890009506109296060FC00E94F8360091970682
:1038A000109198062091990630919A0606171707ED
:1038B0002807390710F080E001C082E0CF911F9106
:1038C0000F91089510925403089584E10E94A63147
:1038D0008A3150F08DE00E94502585E00E946025DD
:1038E0006FEF7FEFCB01089594E0899FF0011124E1
:1038F000E159F84F608171818281938108958091AF
:10390000A606809354030C9463250E94632580913E
:10391000A60690E0A0E0B0E08093DF039093E00380
:10392000A093E103B093E20381E8809354030E94E3
:1039300063258091A606873219F087E20E94A9319B
:103940000C946325CF92DF92EF92FF920F931F9317
:10395000CF93DF938091A60690E0C097092E000CCC
:10396000AA0BBB0B8093DF039093E003A093E103CA
:10397000B093E2033DECC32E3CECD32EED2C3DE3A3
:10398000F32ED0E0CAE00E9463258091A60690E065
:103990000E949640382F8093A606282F2F7D91F104
:1039A0008F3281F128ED280F263060F18E3551F1EC
:1039B00026EC280F253030F12EED280F253010F1A0
:1039C00025E8280F2430F0F0CA3061F44091DF037D
:1039D0005091E0036091E1037091E203452B462B87
:1039E000472BE1F03E3211F120ED280F2A30B0F1E3
:1039F000DD2309F483C0832F90E08F97D0E0C817B0
:103A0000D907ACF181E880935403DF91CF911F91E6
:103A10000F91FF90EF90DF90CF900895383711F419
:103A2000C0E1B1CF3236F1F6C2E0ADCFD1111FC047
:103A3000CA30E9F46091DF037091E0038091E10303
:103A40009091E2030E94003E6093DF037093E003D5
:103A50008093E1039093E203D1E095CF9927AC01E5
:103A60004F5251092C2F30E0241735071CF48EE0FB
:103A70000E94AE31FC01F097DD2349F1BF01FF0F39
:103A8000880B990B0E94003EA70196010E94B03E50
:103A90009B01AC016091DF037091E0038091E10331
:103AA0009091E2030E94FD3C6093DF037093E0037A
:103AB0008093E1039093E20320E030E040E251E4A0
:103AC000C701B6010E94653D6B017C015CCF20916E
:103AD000DF033091E0034091E1035091E203AC2F0A
:103AE000B0E00E94C13C8F01FF0F220B330BDC01C1
:103AF000CB01800F911FA21FB31F1DC0C03109F061
:103B00007ACF8156863000F58091DF039091E003F3
:103B1000A091E103B091E20324E0880F991FAA1F4E
:103B2000BB1F2A95D1F7830F911DA11DB11D87558C
:103B30009109A109B1098093DF039093E003A09359
:103B4000E103B093E2031FCF273308F41CCF8FCFDC
:103B50008A3118F08DE00E94A43194E0899FF00131
:103B60001124E159F84F4083518362837383089590
:103B7000E091D70BF091D80B2091D90B94E0299FBD
:103B8000900111242952384FE217F30718F083E00F
:103B90000E94A4319F012F5F3F4F3093D80B209399
:103BA000D70B808308950E9452156FEF7FEFCB01F2
:103BB00008950F931F93CF9385EB92E00E946E15AB
:103BC0000FE617E0C0E081E68C0F0E94F50C83EB56
:103BD00092E00E945F15F80161917191819191913C
:103BE0008F0120E040E00E94271581EB92E00E94C7
:103BF0005F158C2F8F7019F4C1110E945215CF5F81
:103C0000CA3109F70E9452156FEF7FEFCB01CF91B8
:103C10001F910F910895EF92FF920F931F93CF93EF
:103C2000DF93EC010DE089E0F82E9AE0E92E809117
:103C3000A606823239F4DF91CF911F910F91FF9048
:103C4000EF9041C78C3509F03AC03DD79091A60658
:103C5000923771F028F49E3691F5E092A6062FC0B7
:103C6000943719F0983739F02AC0F092A60627C089
:103C70000093A60624C027D78091A60690ED980F42
:103C80009A3038F0982F9F7D9154963010F084E14F
:103C900020C0E5D6182F17D79091A60680ED890F82
:103CA0008A3028F0292F2F7D2154263080F7892F44
:103CB000D6D6F0E11F9F800D11248093A606809137
:103CC000A606FE011995FFD68091A6068111AFCFF9
:103CD0008CE00E94A631EF92FF920F931F93CF9337
:103CE000DF938C010E949C336093DF037093E003A9
:103CF0008093E1039093E2036F3F7F4F8F4F9F4F7D
:103D000021F083EA809354032AC0C1E5D4E0FE0188
:103D10008491882339F1BE01C8010E946E3C7C0168
:103D2000CE010E94773C0196C80FD91FEF2881F47D
:103D300084EA80935403CE01DD0FAA0BBB0B809362
:103D4000DF039093E003A093E103B093E20307C085
:103D5000CE010E94773C0196C80FD91FD8CF809121
:103D6000540304C080E88093540380E0DF91CF9136
:103D70001F910F91FF90EF9008958F929F92AF92B5
:103D8000BF92CF92DF92EF92FF921F93CF93DF9378
:103D90008091A60690E00E949640C82F8093D2039F
:103DA00092D693EDC92E93E0D92ED1E01091A606BC
:103DB000E12EF12CC7010E948240892B71F0DC308A
:103DC00019F487E10E94A431DF5FC7010E94964089
:103DD000F60181936F0177D6E9CF1E3281F31F354B
:103DE00071F3ED2FF0E0EE52FC4F1082D130A1F4D0
:103DF000EC2E0C2E000CFF08C7010E948F40892B6F
:103E000069F083E880935403C70181569109092E14
:103E1000000CAA0BBB0B36C0D430E8F5C13611F04C
:103E2000C436C9F58091D303282F082E000C330B1C
:103E3000205331092A30310570F59091D403292F90
:103E4000092E000C330B205331092A30310520F0A4
:103E5000992309F489C01FC0C13611F421E901C0BA
:103E600022E9209354038053992331F09053FAE0D0
:103E70008F9F900D1124892F213909F4825F90E0E2
:103E8000A0E0B0E08093DF039093E003A093E10310
:103E9000B093E20371C089EF93E00E94A70D8823DD
:103EA00051F0E091DF03F091E003E951FC4FE49120
:103EB000E093540361C087E293E00E94A70D811153
:103EC00041C01092DF031092E0031092E1031092C0
:103ED000E2038090A506912CA12CB12C0DC03FEFE0
:103EE000C31AD30AE30AF30AC092DF03D092E003B5
:103EF000E092E103F092E203C090DF03D090E00390
:103F0000E090E103F090E203C814D904EA04FB0452
:103F1000ECF4F601EE0FFF1FEE0FFF1FE955F94F0E
:103F20006081718182ED93E00E94B940892BB9F6DE
:103F30006894C7F8C092DF03D092E003E092E103F7
:103F4000F092E2038EE88093540316C082ED93E072
:103F5000DF91CF911F91FF90EF90DF90CF90BF90B6
:103F6000AF909F908F90B7CEC13609F079CF91E98D
:103F700090935403805382CFDF91CF911F91FF9094
:103F8000EF90DF90CF90BF90AF909F908F9008956B
:103F90000F931F93E091A306F091A4068C01092EC4
:103FA000000C220B330B40815181628173814017D9
:103FB00051076207730724F46BE182E00E94C92D68
:103FC000880F991F880F991FE81BF90B6081718179
:103FD000828193811F910F91089581E00E94FA2DB3
:103FE000E091A306F091A406808580FF28C081E0BF
:103FF00090E0CEDFFB0120812136C9F4DB010D907A
:104000000020E9F79D01235031092617370779F47D
:104010006181062E000C770BCB01C0970A9738F40C
:1040200062527109072E000C880B990B08958BE8DA
:1040300092E00E945F1560E070E0CB01089581E09E
:1040400090E0A6CF0F931F9381E090E0A1DF615035
:10405000710981E090E002C0880F991F6A95E2F72C
:10406000092E000CAA0BBB0BE091A306F091A4064D
:104070000484F585E02D40855185628573858C012A
:104080009D01042315232623372361E070E080E09F
:1040900090E0012B022B032B19F460E070E0CB01C0
:1040A0001F910F910895E091D90BEF3F21F464E047
:1040B00089E00E94C92DEF5FE093D90B84E0E89F6F
:1040C000F0011124E952F84F60817181828193815E
:1040D00008958091D90B8F5FE091A306F091A4061B
:1040E0009081890F8093D90BDEDF7093D80B60939A
:1040F000D70BD9DFD8DF7093A4066093A306089589
:104100004091D90B24E0429FF0011124E952F84F6D
:104110002091D70B3091D80BE217F30718F489E000
:104120000E94A4312FEF240F2093D90B6083718359
:10413000828393830895CF92DF92EF92FF92CF9381
:10414000C82FB1DF6B017C01AEDF9B01AC01CE3526
:1041500009F4BCC028F5CB3209F44CC070F4C63267
:1041600009F4AFC0CA3209F44AC0C53209F0C0C070
:10417000A70196010E94A53CB5C0CF3209F444C006
:1041800040F4CD3209F0B4C06C197D098E099F0945
:10419000A9C0CC3309F43FC0CE3309F447C0A8C04E
:1041A000C73809F473C098F4C43809F44AC040F41D
:1041B000CC3709F09DC06C297D298E299F2992C09A
:1041C000C53809F449C0C63809F45AC091C0C93885
:1041D00009F44CC008F468C0CA3809F47CC0CB3874
:1041E00009F086C004C09595879577956795CA9420
:1041F000D2F778C06C0D7D1D8E1D9F1D73C0C70149
:10420000B6010E94133F6EC0A70196010E94A53C13
:10421000CA01B90167C061E070E080E090E02C1550
:104220003D054E055F050CF45DC047C061E070E0E0
:1042300080E090E0C216D306E406F5060CF452C006
:104240003CC061E070E080E090E0C216D306E40676
:10425000F5060CF047C031C061E070E080E090E00E
:104260002C153D054E055F05ECF527C061E070E0BB
:1042700080E090E02C153D054E055F0599F51DC0C9
:10428000672B682B692B59F061E005C061E0232B97
:10429000242B252B29F4CD28CE28CF2809F460E043
:1042A00070E080E090E01EC061E070E080E090E0AF
:1042B0002C153D054E055F05A9F060E070E0CB01CF
:1042C00011C06C217D218E219F210CC06C257D2584
:1042D0008E259F2507C004C0660F771F881F991F72
:1042E000CA94D2F7CF91FF90EF90DF90CF9008CF94
:1042F0008AE00E94A6318DEF8093D90B8BEC9BE076
:104300009093A4068093A30660E070E0CB01F8DEF2
:10431000E7EDF7E0F093D80BE093D70B1082089508
:104320008091A60687FD0AC0E82FE695F0E0EE53DF
:10433000FD4FE49180FFE295EF7001C0E4E0F0E012
:10434000EE0FFF1FE85AFD4F0190F081E02D199408
:104350008091A60680935403B6D3409154035091A4
:10436000A60680E02EE033E0F9019491992351F103
:104370002E5F3F4F3196E491491320C05E131EC05B
:10438000E82FF0E0EE5FFC4FE491E09354039BD301
:1043900080915403863AB1F480915403863A69F4CB
:1043A0008091A606882361F08A3021F08D3011F0CB
:1043B0008AD3F6CF88D3B4DFEFCF08958F5FD4CF01
:1043C0001092540308958091A60687FD0CC0E82F33
:1043D000E695F0E0EE53FD4FE49180FFE295EF703B
:1043E00011F471D3F0CF9CCFEF92FF920F931F93F4
:1043F000CF93DF936091A3067091A406072E000C63
:10440000880B990B7DDE60E070E0CB0179DE609176
:10441000D70B7091D80B072E000C880B990B70DE10
:10442000C2EDD3E08991882311F0A2DBFBCFA0DBA2
:10443000C091D90B84E0C89FE0011124C952D84F24
:1044400060E070E0CB015CDE80915403883209F0BB
:1044500055C066DF8E01EE24E394F12C8091540365
:10446000893239F480915403893209F044C058DF0D
:1044700045C08823B9F3823241F56091D70B709122
:10448000D80B072E000C880B990B3ADE88EB9DE1C8
:10449000C2DB80E06DDB44DFC701F801008002C0B1
:1044A000880F991F0A94E2F7092E000CAA0BBB0B88
:1044B000488559856A857B85842B952BA62BB72B40
:1044C00088879987AA87BB8703C00E94231718DEB5
:1044D000F80180819181A281B3810196A11DB11D56
:1044E00080839183A283B383809154038C3209F03B
:1044F000B9CF16DFB3CF8FE00E94AE31D093A406C0
:10450000C093A306DF91CF911F910F91FF90EF9081
:1045100008950F931F93CF93DF9300D01F92CDB7D1
:10452000DEB71091DF037091E0038091E103909179
:10453000E203009154037A838B839C83F1DE7A81BA
:104540008B819C81033809F444C0E8F40A3209F4F1
:1045500079C150F4063209F456C1083209F417C182
:10456000013209F07FC13FC10D3209F42BC118F4AB
:104570000B32B9F277C10E3709F42EC1013809F0B8
:1045800071C1612F66C1023909F4AEC078F40D38EB
:1045900009F4D5C020F40C3809F4C1C063C10E3849
:1045A00009F45EC0013909F490C05CC1033A09F412
:1045B00078C020F4013A09F4D6C054C1043A09F491
:1045C00077C0053A09F04EC140E050E0BA0184E0FE
:1045D00073C0809154038D3341F4A2DE0E942317EF
:1045E000AB01BC01812FB4DA26C08C3861F4812F75
:1045F0006FD986DD812F6CD9AB01BC014F5F5F4F56
:104600006F4F7F4F0DC08D38B1F4812F61D978DDA8
:10461000812F5ED9AB01BC0141505109610971097B
:10462000812F96DA0F900F900F900F90DF91CF911E
:104630001F910F9175CE1A3140F08DE031D285E097
:104640003FD26FEF7FEFCB0104C184E0189FF001F0
:104650001124E159F84F6081718182819381F9C001
:10466000E12F17FF0AC0EF7784E0E89FF0011124E3
:10467000E955F94F0281138107C0F0E0EE0FFF1FEB
:10468000EE5EFA4F05911491AFDEF801199569833A
:104690007A838B839C831DDD69817A818B819C81E8
:1046A000D8C0612F0E946835AB01BC0183E004C013
:1046B000412F572FBC0182E00F900F900F900F9069
:1046C000DF91CF911F910F91ADC2809154038D3333
:1046D00039F426DE0E942317812F0E94DF0D0EC0C1
:1046E000812F0E94A80E16C0809154038D3379F457
:1046F00017DE0E942317812F0E944A3660915503CE
:10470000709156038091570390915803A2C0812F56
:104710000E942236BC01990F880B990B9AC0809198
:104720005403833811F08DE039C08091DF03D0D875
:10473000AB01BC014F5F5F4F6F4F7F4F0DC080914A
:104740005403833881F78091DF03C2D8AB01BC01E9
:1047500041505109610971098091DF03F9D98091B4
:10476000DF03B6D82DC080915403883211F088E25F
:104770000CC0D6DD0E942317CB010ADCC1DC80917E
:104780005403893209F44ECF89E20E94A9310E9474
:10479000FC1680915903813819F08EE00E94AE31E9
:1047A00080915403893221F06FE082E00E94C92D8C
:1047B000609155037091560380915703909158036F
:1047C0009FDC30CFA6DE6FDC90958095709561956B
:1047D0007F4F8F4F9F4F3DC09CDE65DC609570958D
:1047E0008095909536C095DE5EDC8B019C0161E082
:1047F00070E080E090E0012B022B032B51F160E090
:1048000070E0CB0126C080915403833879F4609125
:10481000DF037091E003660F771F660F771F615902
:10482000784F072E000C880B990BCACF833A09F0FA
:104830007ACF6091DF037091E0038091E103909162
:10484000E203BECF66DE2FDCFB01608170E080E01A
:1048500090E00F900F900F900F90DF91CF911F91EC
:104860000F914ECC8EE00E94A631CF93DF931F9222
:10487000CDB7DEB74EDE809154038A3231F489839E
:104880004FDD47DE898157DCF6CF8F32C1F38532A9
:10489000B1F30F90DF91CF910895CF93DF931F92E3
:1048A000CDB7DEB7E2DF809154038B3231F48983D8
:1048B00037DDDBDF89813FDCF6CF8D32C1F30F902E
:1048C000DF91CF91089508952091F80B8091F40B1A
:1048D0009091F50B223039F0233041F0213059F41A
:1048E000FC01808105C0FC01849102C00E948F3CC4
:1048F0008093A60608958AE10E94A631CF92DF92A6
:10490000EF92FF92CF93E091A306F091A406662365
:1049100071F04085518562857385411551056105AA
:10492000710541F0FA0134962081318105C024815E
:10493000358102C020E030E0FC01C080D180E280FF
:10494000F380C4812F3F3F4F39F480E20E94F50C81
:104950008FEF9FEF0E947015C093F80BC092F40B7D
:10496000D092F50BE092F60BF092F70BCC2331F0DE
:10497000CF91FF90EF90DF90CF90A6CFCF91FF9097
:10498000EF90DF90CF900895CF93DF930E94B31301
:10499000C0E8D0E0CE010E948F3C8F3F21F06FEF46
:1049A000CE010E94973C2196C1158FE0D80791F760
:1049B000DF91CF910895CF93809154038B37D1F439
:1049C000AFDCC0E080915403882309F446C08B37E4
:1049D00011F4CF5F0DC08D3731F41C1614F0CF9158
:1049E0009FCCC15005C0823219F483E694E213D9FA
:1049F00097DCE8CF8F3849F08E3939F0C0E00EC02F
:104A00008B3349F18B3701F18BDC80915403811199
:104A1000F7CF23C0883239F4CF5F82DC8091540312
:104A20008111F8CF1AC0893221F41C16C4F6C15086
:104A3000F4CF823221F483E694E2EDD8EECFC111B7
:104A4000ECCF8B3351F7CBCFB6DF80915403823A52
:104A500021F466DCB1CF64DCF8CFCF91089590EDFE
:104A6000980F9A3038F0082E000C990B0E9496404F
:104A700087550895892F08951F93CF93DF93182F9B
:104A8000C2E2D6E0CE01112339F00E94773C0196B4
:104A9000C80FD91F1150F6CFDF91CF911F91089504
:104AA000CF93DF93E9DFFC018491EF012196882306
:104AB00021F00E94F50CFE01F7CFDF91CF91089510
:104AC000EFDF0C9452158091F40B9091F50BA091AF
:104AD000F60BB091F70B0196A11DB11D8093F40B5D
:104AE0009093F50BA093F60BB093F70BEDCEEF92EE
:104AF000FF920F931F93CF93DF93CDB7DEB72D9720
:104B00000FB6F894DEBF0FBECDBF8E83488759879E
:104B10006A877B873D872C878091F40B9091F50BFA
:104B2000A091F60BB091F70B89839A83AB83BC837A
:104B30001091F80B1D83209154032F836091DF03A4
:104B40007091E0038091E1039091E203D9DA1111B1
:104B50001BC08CED9BE00E941E3C0197A9F40E94B3
:104B6000B31381E080930002C6DB1092F80B109221
:104B7000F40B1092F50B1092F60B1092F70B6FEFEF
:104B80007FEF8FEF9FEF41C08C859D85019699F057
:104B9000BE81B093F80B88859985AA85BB858093E3
:104BA000F40B9093F50BA093F60BB093F70B9E814B
:104BB000992351F008C080E20E94F50C8FEF9FEF1F
:104BC0000E947015E5CF80DEABDBE12CF12C00E01C
:104BD00010E005C0803A39F04FD07B018C01809104
:104BE00054038111F7CF61E0CE01019687DEAF81DA
:104BF000A093540358DA6093DF037093E00380932B
:104C0000E1039093E203B701C8012D960FB6F89423
:104C1000DEBF0FBECDBFDF91CF911F910F91FF90EF
:104C2000EF900895CF93DF9300D01F921F92CDB7DE
:104C3000DEB749835A836C837D838B83D5DBE09118
:104C4000A306F091A4062481358149815A816C81A3
:104C50007D818B814CDF6C837D838B83998339DAF3
:104C60006C817D818B8199810F900F900F900F90B7
:104C70000F90DF91CF9144CA2F923F924F925F9253
:104C80006F927F928F929F92AF92BF92CF92DF925C
:104C9000EF92FF920F931F93CF93DF93CDB7DEB7C1
:104CA0006D970FB6F894DEBF0FBECDBF80E795E0DD
:104CB0000E945734892B71F080E795E00E943534CB
:104CC000039741F486E0FCDE61E070E08CED9BE050
:104CD0000E94403C42D7623371058105910510F472
:104CE00085E1EEC180915403873A09F071C018DB69
:104CF0008091F40B9091F50BA091F60BB091F70B0E
:104D00008A8B9B8BAC8BBD8B8091F80B8E8B08DBD9
:104D1000809154038B3309F441C0809154038C3249
:104D200009F4FEDAA9DF809154038C32B1F360E01C
:104D3000CE014296E3DDF4DA3EDE809154038B33FC
:104D4000A9F48091F40B9091F50BA091F60BB09122
:104D5000F70B89839A83AB83BC838091F80B8D8397
:104D6000DFDA809154038B3341F40BC00E94231788
:104D7000672B682B692B29F71FC0893211F01BDEC6
:104D800001C0CEDA79DF60E0CE010196B7DDC8DA86
:104D9000809154038B3311F0893241F4C1DAC7CFCB
:104DA0006BDF809154038C3209F0C1CF80915403A2
:104DB0008C32B1F7B5DAF4CFB3DA809154038B3388
:104DC00021F0893211F0F7DD01C0AADAF4DDBBC3AE
:104DD000803931F58091F40B9091F50BA091F60B91
:104DE000B091F70B89839A83AB83BC838091F80BD6
:104DF0008D83E12CF12C00E010E060E0CE01019603
:104E00007DDD8EDA0E942317672B682B692BD1F08A
:104E100033DF7B018C0180915403803A71F72FC4FA
:104E20008F38E9F47DDA0E942317672B682B692BF2
:104E300059F022DF7B018C0180915403823A09F002
:104E40001EC46EDAB8DD1BC4B6DD80915403823A0D
:104E500009F079C365DA10DF7B018C0110C48B3750
:104E6000A1F45EDAE12CF12C00E010E08091540313
:104E7000882309F404C4803A09F401C48D3709F485
:104E80000DC4FADE7B018C01F1CF8F39A1F448DA31
:104E900080915403882339F08B3329F00E94231723
:104EA0007B018C0104C0E12CF12C00E010E080EAD1
:104EB00080935403E4C38E3909F06CC0C090DF03C3
:104EC000D090E003E090E103F090E20329DA0E9441
:104ED00023178091550390915603A0915703B091E9
:104EE0005803B7FF08C01092550310925603109252
:104EF00057031092580300915503809154038B3748
:104F000011F08BE75DC20CDA2EE9B22E0023A9F175
:104F100010915403112319F11D3709F18091F40BFD
:104F20009091F50BA091F60BB091F70B89839A83C2
:104F3000AB83BC838091F80B8D83C090DF03D0904E
:104F4000E003E090E103F090E20335DD809154034B
:104F5000882319F08D3709F00150B12ED7CF60E0CA
:104F6000CE010196CBDCB0925403C092DF03D09205
:104F7000E003E092E103F092E2037EDE7B018C012C
:104F800080915403882309F47AC38D3709F486C3CA
:104F900012DDF6CF843909F0CDC0C2D98091540317
:104FA000803831F0835A833018F087E10E94A631AF
:104FB0004DE050E062ED73E08E010F5F1F4FC801BE
:104FC0000E94C240C8010E94F133AAD980915403C3
:104FD0008B3711F08BE78CC2E090F40BF090F50B5F
:104FE0001701E9DCE091F40BF091F50B3197F88FA4
:104FF000EF8BEE16FF0618F1F80101900020E9F79B
:1050000031974F01801A910AC401A0E0B0E0898F66
:105010009A8FAB8FBC8F0296A11DB11D4F88588C03
:105020004E185F08052C000C66087708480E591EBC
:105030006A1E7B1E60E870E080E090E031C031972E
:1050400081818D37A1F6D8CFEFEFCE1ADE0AEE0AB6
:10505000FE0AFFEFCF16FEE0DF06E104F10478F56B
:10506000C6010E948F3C8F3F79F746015701C70167
:10507000B6010E94A0356F3FBFEF7B078B079B07F0
:1050800021F460E07FE080E090E09B01AC012C190E
:105090003D094E095F09241535054605570590F46D
:1050A0006B017C01C40CD51CE61CF71CC114AFE0DD
:1050B000DA06E104F10418F46B017C01CACF81E146
:1050C0000E94A431D8016D918D01C401662341F085
:1050D0000E94973C2FEF821A920AA20AB20AF2CFDC
:1050E0000E94973C898C9A8CAB8CBC8CBFEF8B1A3E
:1050F0009B0AAB0ABB0AC80CD91CEA1CFB1C8F8993
:10510000988D2816390678F4EFEF2E1A3E0AF10131
:1051100031976081C6010E94973CFFEFCF1ADF0AEA
:10512000EF0AFF0AECCF60E0C6010E94973C80E1E5
:10513000C7DC09C2863991F5F3D880915403835AAC
:10514000833008F032CFECD8809154038C32E1F4F4
:105150006091DF037091E0038091E1039091E2039D
:105160000E948020DDD80E942317C0905503D09064
:105170005603E0905703F09058030E945320DC013F
:10518000CB01B701A60107C040E050E0BA01809111
:10519000DF039091E0030E947213D5C1883909F0B2
:1051A00055C0BED8809154038A3219F40E94B313BB
:1051B00061C08B3311F0811111C08091DB0B88230A
:1051C00051F0E091DA0BEA3008F0BDC194E0E99FBC
:1051D000F001112431C00E94B313B5C1833A19F50F
:1051E00082ED93E00E949C336F3FAFEF7A078A070E
:1051F0009A0709F4A8C1EAEAF3E00FEF1FEF98015C
:10520000C080D180E280F380C616D706E806F90692
:1052100021F400831183228333833496B3E0E23D8B
:10522000FB0771F790C10E9423176A3008F08BC109
:1052300024E0629FF0011124E655FC4F8FEF9FEFB1
:10524000DC0180839183A283B3837DC18539A1F47E
:1052500067D880915403833A29F482ED93E00E9449
:10526000F13308C08A3211F48FDB04C0803811F0AA
:1052700087E13EC155D867C18C3911F451D88BC034
:10528000893921F4E0E0F0E019955DC1873999F59D
:1052900047D80AEA13E0C12CD12C7601F8018081AD
:1052A0009181A281B3818F3F9F4FAF4FBF4FA9F034
:1052B00020E240E0C701B6010E9427158AE30E9460
:1052C000F50C80E20E94F50CD8016D917D918D91D5
:1052D0009C910E9454330E9452150C5F1F4FBFEFE8
:1052E000CB1ADB0AEB0AFB0AEAE0CE16D104E10492
:1052F000F104A1F628C18A39C1F412D841E150E085
:105300006EE575E0CE0101960E94653CEE24E394C3
:1053100000E81FE020E030E040E850E060E070E0AE
:10532000CE0101960E94B1310EC18B39B9F50E94B0
:10533000902120E030E048E554E0052E000C660B9B
:10534000770B82E0D4DB8EE695E00E94C33589EFCF
:1053500093E00E94C33589E1A3DB87E293E00E94DA
:10536000C3350E94521510E08091A506181778F4F5
:1053700024E0129FF0011124E955F94F80819181B9
:105380000E94701580E20E94F50C1F5FEDCF0E9415
:1053900052150E9452150E946533D5C08D3909F00F
:1053A000D7C00E94902180915403833281F40E94DF
:1053B00090210E942317909154039A3311F08AE3AD
:1053C000C8D76D8F0E9490218D8D0E94C21580914B
:1053D0005403823229F485EF9CE00E940B1E89C0A1
:1053E0008B3309F495C0882309F492C00E94FC16FF
:1053F000809154038A3309F07FC00E9490218091EC
:105400005403833809F051C08091DF039091E00389
:10541000A091E103B091E20387319105A105B105A7
:1054200061F46091550370915603809157039091F8
:10543000580300E320E040E110C081309105A10550
:10544000B10571F460915503709156038091570333
:105450009091580300E320E042E00E94BB1349C052
:1054600088319105A105B10529F4809155030E9469
:10547000F50C3FC082319105A105B10539F4809149
:105480005503909156030E94701533C00597A105EE
:10549000B10579F5609155037091560380915703DA
:1054A000909158030E94591424C0813200F18091D8
:1054B000550390915603A0915703B0915803AC0146
:1054C000BD01415051096109710940935503509341
:1054D00056036093570370935803181619061A065B
:1054E0001B063CF4809154030E94F50CE0CF8BE046
:1054F00035D70E9490210CC06091550370915603DE
:10550000809157039091580320E040E00E942715B6
:10551000809154038B3311F0811103C00E94521506
:105520000FC08C3209F03FCF0E949021809154032C
:105530008B3331F0882321F080E20E94F50C33CFC9
:1055400081E080930002E12CF12C00E010E097C094
:105550008B33C9F38A3309F088C082E0D6D16C015D
:1055600084E0D3D12C0182E0D0D1182F8FE096E0D7
:105570000E946E15113021F4E0E0F0E0199586C02C
:10558000111184C0052C000C6608770841145104E1
:105590006104710409F4F8D90C2DA12CB12CF12C63
:1055A0001F8A2FEF2C0D298F46019924E98CEA18C8
:1055B0000A15D1F113E0212C312C115099F080E71C
:1055C00095E00E945734892BD1F380E795E00E9443
:1055D000353494E0220C331C9A95E1F740DA280E1A
:1055E000311CEBCF122DF20CA4014E195109A4E687
:1055F000A49FC001A59F900D1124B4010E94223FD9
:105600002F89822F90E08617970721F06F8B8EE20B
:105610000E94F50CC501840D951D612F0E94973CD9
:105620004FEFA41AB40AC2CF10E020E030E0EE241D
:10563000E394B301A20182EA92E093D682E065D1BD
:105640002F2D30E02817390719F06EE182E00CC0E9
:10565000B6017727072E000C880B990B20E040E05D
:105660000E94271560E08AE194D20E94FC16E09027
:105670005503F09056030091570310915803809101
:1056800054038B3341F40E94902105C061E070E027
:1056900080E090E006C0B701C80103C00E949021DD
:1056A000EECF6D960FB6F894DEBF0FBECDBFDF9183
:1056B000CF911F910F91FF90EF90DF90CF90BF900F
:1056C000AF909F908F907F906F905F904F903F90A2
:1056D0002F900895CF93CFEF0E945215C150E1F75C
:1056E000CF9108954F925F926F927F928F929F9287
:1056F000AF92BF92CF92DF92EF92FF920F931F93E0
:10570000CF93DF9380E090E00E94C81F1616170623
:10571000180619063CF481E090E00E94C81FCB01F6
:105720000E947015C12CD12C76018DEC882E8CEC4A
:10573000982EA92C8DE3B82E00E010E080E795E0CC
:105740000E945734892BD1F380E795E00E943534CD
:10575000EC018D30910539F40E945215011107C0FA
:10576000C701B60180C08A309105B1F4F5CF11238D
:1057700059F0A7019601C701B6010E94FC3CA701A0
:1057800096010E94FC3C6FC066277727CB016C19FD
:105790007D098E099F0967C0C0978A30910560F521
:1057A0002C01990F660877081123C9F0C301B201D3
:1057B0000E94003EA50194010E94B03EA7019601FF
:1057C0000E94FD3C6B017C0120E030E040E251E4AE
:1057D000C501B4010E94653D4B015C0140C0AAE0D7
:1057E000B0E0A70196010E94C13C6B017C01C40C92
:1057F000D51CE61CF71C33C0CE32D10551F4111173
:105800009DCFC701B6010E94003E6B017C0111E0F3
:1058100026C0CD32D10521F4011190CF01E01FC087
:10582000C830D10519F0CF37D105B9F4C114D1046E
:10583000E104F104A1F0C701B6012AE030E040E044
:1058400050E00E94A53C69017A0188E00E94F50CB5
:1058500080E20E94F50C88E003C087E001C08C2F35
:105860000E94F50C6BCFDF91CF911F910F91FF90AC
:10587000EF90DF90CF90BF90AF909F908F907F90F0
:105880006F905F904F90089580E090E00E94C81F55
:1058900016161706180619063CF481E090E00E94DF
:1058A000C81FCB010E94701580E795E00E94573415
:1058B000892BD1F380E795E0D8D7BC01990F880BED
:1058C000990B08950C94F836CF92DF92EF92FF92E5
:1058D000CF936B017C01C6010E948F3CC82F8F3F84
:1058E00061F08FEFC81AD80AE80AF80AC6010197D2
:1058F0006FEF0E94973CC111EECFC701B601CF9167
:10590000FF90EF90DF90CF9008951F93CF93DF9398
:10591000182FC0E0D0E0112369F084E0CC0FDD1F28
:105920008A95E1F78091A6069AD8C80FD11DCBD8E9
:105930001150F1CFCE01DF91CF911F9108959C01BD
:105940009091A506923320F089E1AAD885E0B8C8E5
:1059500084E0989FF0011124E955F94F31832083A9
:10596000738362839F5F9093A50608958F929F92A1
:10597000AF92BF92CF92DF92EF92FF921F93CF939D
:10598000DF9300D01F92CDB7DEB7182F19821A828D
:105990001B821C8281E090E00E94513F4C01092E45
:1059A000000CAA08BB08AE014F5F5F4F052E000C2C
:1059B000660B770B49835A836B837C83113041F4E8
:1059C0002091710C211116C083E08093710C0DC0E1
:1059D00081149104A104B10491F4133011F41092D4
:1059E000710C8BED97E00E946E1560E070E080E036
:1059F00090E0A3C081149104A104B10491F30E942A
:105A0000E63FC980DA80EB80FC80C818D908EA0834
:105A1000FB08112309F48AC089EC97E00E945F1506
:105A200066E577E880E090E00E94581586EB97E005
:105A30000E945F1560E173E06050724080E090E08A
:105A40000E9458158AE997E00E945F1560E070E0B7
:105A5000CB010E9458158FE897E00E945F1565EC16
:105A60007CE06051734080E090E00E9458158EE722
:105A700097E00E945F1585EC9CE0A5019401281B2E
:105A8000390B41095109CA01B9010E9458158CE628
:105A900097E00E945F1589809A80AB80BC808FEF71
:105AA00091E2A0E0B0E0BC01CD01681979098A0952
:105AB0009B090E94581589E597E00E945F15C70170
:105AC000B6010E94581584E397E00E945F1560E0DC
:105AD00071E080E090E00E94521484E297E00E941E
